{
  "_format": "hh-sol-artifact-1",
  "contractName": "SolanaUpdater",
  "sourceName": "contracts/SolanaUpdater.sol",
  "abi": [
    {
      "inputs": [
        {
          "internalType": "address",
          "name": "_sp1Verifier",
          "type": "address"
        }
      ],
      "stateMutability": "nonpayable",
      "type": "constructor"
    },
    {
      "anonymous": false,
      "inputs": [
        {
          "indexed": true,
          "internalType": "address",
          "name": "oldAdmin",
          "type": "address"
        },
        {
          "indexed": true,
          "internalType": "address",
          "name": "newAdmin",
          "type": "address"
        }
      ],
      "name": "AdminChanged",
      "type": "event"
    },
    {
      "anonymous": false,
      "inputs": [
        {
          "indexed": true,
          "internalType": "uint64",
          "name": "slot",
          "type": "uint64"
        },
        {
          "indexed": false,
          "internalType": "bytes32",
          "name": "blockhash",
          "type": "bytes32"
        },
        {
          "indexed": false,
          "internalType": "uint64",
          "name": "blockHeight",
          "type": "uint64"
        }
      ],
      "name": "SolanaBlockUpdated",
      "type": "event"
    },
    {
      "inputs": [],
      "name": "admin",
      "outputs": [
        {
          "internalType": "address",
          "name": "",
          "type": "address"
        }
      ],
      "stateMutability": "view",
      "type": "function"
    },
    {
      "inputs": [],
      "name": "currentSlot",
      "outputs": [
        {
          "internalType": "uint64",
          "name": "",
          "type": "uint64"
        }
      ],
      "stateMutability": "view",
      "type": "function"
    },
    {
      "inputs": [
        {
          "internalType": "uint64",
          "name": "slot",
          "type": "uint64"
        }
      ],
      "name": "getSolanaBlock",
      "outputs": [
        {
          "components": [
            {
              "internalType": "uint64",
              "name": "slot",
              "type": "uint64"
            },
            {
              "internalType": "bytes32",
              "name": "blockhash",
              "type": "bytes32"
            },
            {
              "internalType": "bytes32",
              "name": "parentHash",
              "type": "bytes32"
            },
            {
              "internalType": "uint64",
              "name": "blockHeight",
              "type": "uint64"
            },
            {
              "internalType": "int64",
              "name": "timestamp",
              "type": "int64"
            },
            {
              "internalType": "uint32",
              "name": "confirmations",
              "type": "uint32"
            }
          ],
          "internalType": "struct SolanaUpdater.SolanaBlockHeader",
          "name": "",
          "type": "tuple"
        }
      ],
      "stateMutability": "view",
      "type": "function"
    },
    {
      "inputs": [
        {
          "internalType": "address",
          "name": "newAdmin",
          "type": "address"
        }
      ],
      "name": "setAdmin",
      "outputs": [],
      "stateMutability": "nonpayable",
      "type": "function"
    },
    {
      "inputs": [
        {
          "internalType": "address",
          "name": "newVerifier",
          "type": "address"
        }
      ],
      "name": "setVerifier",
      "outputs": [],
      "stateMutability": "nonpayable",
      "type": "function"
    },
    {
      "inputs": [
        {
          "internalType": "uint64",
          "name": "",
          "type": "uint64"
        }
      ],
      "name": "solanaHeaders",
      "outputs": [
        {
          "internalType": "uint64",
          "name": "slot",
          "type": "uint64"
        },
        {
          "internalType": "bytes32",
          "name": "blockhash",
          "type": "bytes32"
        },
        {
          "internalType": "bytes32",
          "name": "parentHash",
          "type": "bytes32"
        },
        {
          "internalType": "uint64",
          "name": "blockHeight",
          "type": "uint64"
        },
        {
          "internalType": "int64",
          "name": "timestamp",
          "type": "int64"
        },
        {
          "internalType": "uint32",
          "name": "confirmations",
          "type": "uint32"
        }
      ],
      "stateMutability": "view",
      "type": "function"
    },
    {
      "inputs": [],
      "name": "sp1Verifier",
      "outputs": [
        {
          "internalType": "address",
          "name": "",
          "type": "address"
        }
      ],
      "stateMutability": "view",
      "type": "function"
    },
    {
      "inputs": [
        {
          "internalType": "bytes32",
          "name": "programVKey",
          "type": "bytes32"
        },
        {
          "internalType": "bytes[]",
          "name": "publicValues",
          "type": "bytes[]"
        },
        {
          "internalType": "bytes[]",
          "name": "proofs",
          "type": "bytes[]"
        },
        {
          "components": [
            {
              "internalType": "uint64",
              "name": "slot",
              "type": "uint64"
            },
            {
              "internalType": "bytes32",
              "name": "blockhash",
              "type": "bytes32"
            },
            {
              "internalType": "bytes32",
              "name": "parentHash",
              "type": "bytes32"
            },
            {
              "internalType": "uint64",
              "name": "blockHeight",
              "type": "uint64"
            },
            {
              "internalType": "int64",
              "name": "timestamp",
              "type": "int64"
            },
            {
              "internalType": "uint32",
              "name": "confirmations",
              "type": "uint32"
            }
          ],
          "internalType": "struct SolanaUpdater.SolanaBlockHeader[]",
          "name": "headers",
          "type": "tuple[]"
        }
      ],
      "name": "updateBatchSolanaBlocks",
      "outputs": [],
      "stateMutability": "nonpayable",
      "type": "function"
    },
    {
      "inputs": [
        {
          "internalType": "bytes32",
          "name": "programVKey",
          "type": "bytes32"
        },
        {
          "internalType": "bytes",
          "name": "publicValues",
          "type": "bytes"
        },
        {
          "internalType": "bytes",
          "name": "proof",
          "type": "bytes"
        },
        {
          "components": [
            {
              "internalType": "uint64",
              "name": "slot",
              "type": "uint64"
            },
            {
              "internalType": "bytes32",
              "name": "blockhash",
              "type": "bytes32"
            },
            {
              "internalType": "bytes32",
              "name": "parentHash",
              "type": "bytes32"
            },
            {
              "internalType": "uint64",
              "name": "blockHeight",
              "type": "uint64"
            },
            {
              "internalType": "int64",
              "name": "timestamp",
              "type": "int64"
            },
            {
              "internalType": "uint32",
              "name": "confirmations",
              "type": "uint32"
            }
          ],
          "internalType": "struct SolanaUpdater.SolanaBlockHeader",
          "name": "header",
          "type": "tuple"
        }
      ],
      "name": "updateSolanaBlock",
      "outputs": [],
      "stateMutability": "nonpayable",
      "type": "function"
    },
    {
      "inputs": [
        {
          "internalType": "uint64",
          "name": "slot",
          "type": "uint64"
        },
        {
          "internalType": "bytes32",
          "name": "messageHash",
          "type": "bytes32"
        },
        {
          "internalType": "bytes32[]",
          "name": "merkleProof",
          "type": "bytes32[]"
        }
      ],
      "name": "verifyMessage",
      "outputs": [
        {
          "internalType": "bool",
          "name": "",
          "type": "bool"
        }
      ],
      "stateMutability": "view",
      "type": "function"
    }
  ],
  "bytecode": "0x60806040523480156200001157600080fd5b5060405162001c1338038062001c1383398181016040528101906200003791906200012a565b33600160086101000a81548173ffffffffffffffffffffffffffffffffffffffff021916908373ffffffffffffffffffffffffffffffffffffffff16021790555080600260006101000a81548173ffffffffffffffffffffffffffffffffffffffff021916908373ffffffffffffffffffffffffffffffffffffffff160217905550506200015c565b600080fd5b600073ffffffffffffffffffffffffffffffffffffffff82169050919050565b6000620000f282620000c5565b9050919050565b6200010481620000e5565b81146200011057600080fd5b50565b6000815190506200012481620000f9565b92915050565b600060208284031215620001435762000142620000c0565b5b6000620001538482850162000113565b91505092915050565b611aa7806200016c6000396000f3fe608060405234801561001057600080fd5b506004361061009e5760003560e01c8063731b02aa11610066578063731b02aa1461014c578063a99eb15114610168578063ac6c277414610198578063f7248140146101c8578063f851a440146101e45761009e565b8063106f74c5146100a35780633359632e146100d857806352a07fa3146100f65780635437988d14610114578063704b6c0214610130575b600080fd5b6100bd60048036038101906100b89190610b8a565b610202565b6040516100cf96959493929190610c1a565b60405180910390f35b6100e0610283565b6040516100ed9190610c7b565b60405180910390f35b6100fe61029d565b60405161010b9190610cd7565b60405180910390f35b61012e60048036038101906101299190610d1e565b6102c3565b005b61014a60048036038101906101459190610d1e565b610397565b005b61016660048036038101906101619190610e32565b6104ed565b005b610182600480360381019061017d9190610b8a565b61060e565b60405161018f9190610fb2565b60405180910390f35b6101b260048036038101906101ad9190611023565b610709565b6040516101bf91906110b2565b60405180910390f35b6101e260048036038101906101dd9190611147565b6107a6565b005b6101ec610ac1565b6040516101f99190610cd7565b60405180910390f35b60006020528060005260406000206000915090508060000160009054906101000a900467ffffffffffffffff16908060010154908060020154908060030160009054906101000a900467ffffffffffffffff16908060030160089054906101000a900460070b908060030160109054906101000a900463ffffffff16905086565b600160009054906101000a900467ffffffffffffffff1681565b600260009054906101000a900473ffffffffffffffffffffffffffffffffffffffff1681565b600160089054906101000a900473ffffffffffffffffffffffffffffffffffffffff1673ffffffffffffffffffffffffffffffffffffffff163373ffffffffffffffffffffffffffffffffffffffff1614610353576040517f08c379a000000000000000000000000000000000000000000000000000000000815260040161034a9061124c565b60405180910390fd5b80600260006101000a81548173ffffffffffffffffffffffffffffffffffffffff021916908373ffffffffffffffffffffffffffffffffffffffff16021790555050565b600160089054906101000a900473ffffffffffffffffffffffffffffffffffffffff1673ffffffffffffffffffffffffffffffffffffffff163373ffffffffffffffffffffffffffffffffffffffff1614610427576040517f08c379a000000000000000000000000000000000000000000000000000000000815260040161041e9061124c565b60405180910390fd5b6000600160089054906101000a900473ffffffffffffffffffffffffffffffffffffffff16905081600160086101000a81548173ffffffffffffffffffffffffffffffffffffffff021916908373ffffffffffffffffffffffffffffffffffffffff1602179055508173ffffffffffffffffffffffffffffffffffffffff168173ffffffffffffffffffffffffffffffffffffffff167f7e644d79422f17c01e4894b5f4f588d331ebfa28653d42ae832dc59e38c9798f60405160405180910390a35050565b818190508484905014610535576040517f08c379a000000000000000000000000000000000000000000000000000000000815260040161052c906112b8565b60405180910390fd5b81819050868690501461057d576040517f08c379a000000000000000000000000000000000000000000000000000000000815260040161057490611324565b60405180910390fd5b60005b82829050811015610604576105f7888888848181106105a2576105a1611344565b5b90506020028101906105b49190611382565b8888868181106105c7576105c6611344565b5b90506020028101906105d99190611382565b8888888181106105ec576105eb611344565b5b905060c002016107a6565b8080600101915050610580565b5050505050505050565b610616610ae7565b6000808367ffffffffffffffff1667ffffffffffffffff1681526020019081526020016000206040518060c00160405290816000820160009054906101000a900467ffffffffffffffff1667ffffffffffffffff1667ffffffffffffffff16815260200160018201548152602001600282015481526020016003820160009054906101000a900467ffffffffffffffff1667ffffffffffffffff1667ffffffffffffffff1681526020016003820160089054906101000a900460070b60070b60070b81526020016003820160109054906101000a900463ffffffff1663ffffffff1663ffffffff16815250509050919050565b6000806000808767ffffffffffffffff1667ffffffffffffffff168152602001908152602001600020905060008160000160009054906101000a900467ffffffffffffffff1667ffffffffffffffff1603610799576040517f08c379a000000000000000000000000000000000000000000000000000000000815260040161079090611431565b60405180910390fd5b6001915050949350505050565b60208160a00160208101906107bb919061147d565b63ffffffff161015610802576040517f08c379a00000000000000000000000000000000000000000000000000000000081526004016107f9906114f6565b60405180910390fd5b6000600160009054906101000a900467ffffffffffffffff1667ffffffffffffffff161115610935576000806000600160009054906101000a900467ffffffffffffffff1667ffffffffffffffff1667ffffffffffffffff168152602001908152602001600020905080600101548260400135146108b5576040517f08c379a00000000000000000000000000000000000000000000000000000000081526004016108ac90611562565b60405180910390fd5b600160009054906101000a900467ffffffffffffffff1667ffffffffffffffff168260000160208101906108e99190610b8a565b67ffffffffffffffff1611610933576040517f08c379a000000000000000000000000000000000000000000000000000000000815260040161092a906115f4565b60405180910390fd5b505b600260009054906101000a900473ffffffffffffffffffffffffffffffffffffffff1673ffffffffffffffffffffffffffffffffffffffff166341493c6087878787876040518663ffffffff1660e01b8152600401610998959493929190611672565b600060405180830381600087803b1580156109b257600080fd5b505af11580156109c6573d6000803e3d6000fd5b50505050806000808360000160208101906109e19190610b8a565b67ffffffffffffffff1667ffffffffffffffff1681526020019081526020016000208181610a0f9190611a3a565b905050806000016020810190610a259190610b8a565b600160006101000a81548167ffffffffffffffff021916908367ffffffffffffffff160217905550806000016020810190610a609190610b8a565b67ffffffffffffffff167f03ff4ef94d518ab5e8927510135895f940af63ac4678dd8d4509b5bd93e7f98c8260200135836060016020810190610aa39190610b8a565b604051610ab1929190611a48565b60405180910390a2505050505050565b600160089054906101000a900473ffffffffffffffffffffffffffffffffffffffff1681565b6040518060c00160405280600067ffffffffffffffff1681526020016000801916815260200160008019168152602001600067ffffffffffffffff168152602001600060070b8152602001600063ffffffff1681525090565b600080fd5b600080fd5b600067ffffffffffffffff82169050919050565b610b6781610b4a565b8114610b7257600080fd5b50565b600081359050610b8481610b5e565b92915050565b600060208284031215610ba057610b9f610b40565b5b6000610bae84828501610b75565b91505092915050565b610bc081610b4a565b82525050565b6000819050919050565b610bd981610bc6565b82525050565b60008160070b9050919050565b610bf581610bdf565b82525050565b600063ffffffff82169050919050565b610c1481610bfb565b82525050565b600060c082019050610c2f6000830189610bb7565b610c3c6020830188610bd0565b610c496040830187610bd0565b610c566060830186610bb7565b610c636080830185610bec565b610c7060a0830184610c0b565b979650505050505050565b6000602082019050610c906000830184610bb7565b92915050565b600073ffffffffffffffffffffffffffffffffffffffff82169050919050565b6000610cc182610c96565b9050919050565b610cd181610cb6565b82525050565b6000602082019050610cec6000830184610cc8565b92915050565b610cfb81610cb6565b8114610d0657600080fd5b50565b600081359050610d1881610cf2565b92915050565b600060208284031215610d3457610d33610b40565b5b6000610d4284828501610d09565b91505092915050565b610d5481610bc6565b8114610d5f57600080fd5b50565b600081359050610d7181610d4b565b92915050565b600080fd5b600080fd5b600080fd5b60008083601f840112610d9c57610d9b610d77565b5b8235905067ffffffffffffffff811115610db957610db8610d7c565b5b602083019150836020820283011115610dd557610dd4610d81565b5b9250929050565b60008083601f840112610df257610df1610d77565b5b8235905067ffffffffffffffff811115610e0f57610e0e610d7c565b5b6020830191508360c0820283011115610e2b57610e2a610d81565b5b9250929050565b60008060008060008060006080888a031215610e5157610e50610b40565b5b6000610e5f8a828b01610d62565b975050602088013567ffffffffffffffff811115610e8057610e7f610b45565b5b610e8c8a828b01610d86565b9650965050604088013567ffffffffffffffff811115610eaf57610eae610b45565b5b610ebb8a828b01610d86565b9450945050606088013567ffffffffffffffff811115610ede57610edd610b45565b5b610eea8a828b01610ddc565b925092505092959891949750929550565b610f0481610b4a565b82525050565b610f1381610bc6565b82525050565b610f2281610bdf565b82525050565b610f3181610bfb565b82525050565b60c082016000820151610f4d6000850182610efb565b506020820151610f606020850182610f0a565b506040820151610f736040850182610f0a565b506060820151610f866060850182610efb565b506080820151610f996080850182610f19565b5060a0820151610fac60a0850182610f28565b50505050565b600060c082019050610fc76000830184610f37565b92915050565b60008083601f840112610fe357610fe2610d77565b5b8235905067ffffffffffffffff81111561100057610fff610d7c565b5b60208301915083602082028301111561101c5761101b610d81565b5b9250929050565b6000806000806060858703121561103d5761103c610b40565b5b600061104b87828801610b75565b945050602061105c87828801610d62565b935050604085013567ffffffffffffffff81111561107d5761107c610b45565b5b61108987828801610fcd565b925092505092959194509250565b60008115159050919050565b6110ac81611097565b82525050565b60006020820190506110c760008301846110a3565b92915050565b60008083601f8401126110e3576110e2610d77565b5b8235905067ffffffffffffffff811115611100576110ff610d7c565b5b60208301915083600182028301111561111c5761111b610d81565b5b9250929050565b600080fd5b600060c0828403121561113e5761113d611123565b5b81905092915050565b600080600080600080610120878903121561116557611164610b40565b5b600061117389828a01610d62565b965050602087013567ffffffffffffffff81111561119457611193610b45565b5b6111a089828a016110cd565b9550955050604087013567ffffffffffffffff8111156111c3576111c2610b45565b5b6111cf89828a016110cd565b935093505060606111e289828a01611128565b9150509295509295509295565b600082825260208201905092915050565b7f4f6e6c792061646d696e00000000000000000000000000000000000000000000600082015250565b6000611236600a836111ef565b915061124182611200565b602082019050919050565b6000602082019050818103600083015261126581611229565b9050919050565b7f4c656e677468206d69736d617463680000000000000000000000000000000000600082015250565b60006112a2600f836111ef565b91506112ad8261126c565b602082019050919050565b600060208201905081810360008301526112d181611295565b9050919050565b7f5075626c69632076616c756573206c656e677468206d69736d61746368000000600082015250565b600061130e601d836111ef565b9150611319826112d8565b602082019050919050565b6000602082019050818103600083015261133d81611301565b9050919050565b7f4e487b7100000000000000000000000000000000000000000000000000000000600052603260045260246000fd5b600080fd5b600080fd5b600080fd5b6000808335600160200384360303811261139f5761139e611373565b5b80840192508235915067ffffffffffffffff8211156113c1576113c0611378565b5b6020830192506001820236038313156113dd576113dc61137d565b5b509250929050565b7f426c6f636b206e6f7420666f756e640000000000000000000000000000000000600082015250565b600061141b600f836111ef565b9150611426826113e5565b602082019050919050565b6000602082019050818103600083015261144a8161140e565b9050919050565b61145a81610bfb565b811461146557600080fd5b50565b60008135905061147781611451565b92915050565b60006020828403121561149357611492610b40565b5b60006114a184828501611468565b91505092915050565b7f496e73756666696369656e7420636f6e6669726d6174696f6e73000000000000600082015250565b60006114e0601a836111ef565b91506114eb826114aa565b602082019050919050565b6000602082019050818103600083015261150f816114d3565b9050919050565b7f506172656e742068617368206d69736d61746368000000000000000000000000600082015250565b600061154c6014836111ef565b915061155782611516565b602082019050919050565b6000602082019050818103600083015261157b8161153f565b9050919050565b7f536c6f74206d7573742062652067726561746572207468616e2063757272656e60008201527f7400000000000000000000000000000000000000000000000000000000000000602082015250565b60006115de6021836111ef565b91506115e982611582565b604082019050919050565b6000602082019050818103600083015261160d816115d1565b9050919050565b600082825260208201905092915050565b82818337600083830152505050565b6000601f19601f8301169050919050565b60006116518385611614565b935061165e838584611625565b61166783611634565b840190509392505050565b60006060820190506116876000830188610bd0565b818103602083015261169a818688611645565b905081810360408301526116af818486611645565b90509695505050505050565b600081356116c881610b5e565b80915050919050565b60008160001b9050919050565b600067ffffffffffffffff6116f2846116d1565b9350801983169250808416831791505092915050565b6000819050919050565b600061172d61172861172384610b4a565b611708565b610b4a565b9050919050565b6000819050919050565b61174782611712565b61175a61175382611734565b83546116de565b8255505050565b6000813561176e81610d4b565b80915050919050565b60007fffffffffffffffffffffffffffffffffffffffffffffffffffffffffffffffff6117a3846116d1565b9350801983169250808416831791505092915050565b60006117c482610bc6565b9050919050565b60008160001c9050919050565b60006117e3826117cb565b9050919050565b6117f3826117b9565b6118066117ff826117d8565b8354611777565b8255505050565b61181681610bdf565b811461182157600080fd5b50565b600081356118318161180d565b80915050919050565b60008160401b9050919050565b60006fffffffffffffffff00000000000000006118638461183a565b9350801983169250808416831791505092915050565b600061189461188f61188a84610bdf565b611708565b610bdf565b9050919050565b6000819050919050565b6118ae82611879565b6118c16118ba8261189b565b8354611847565b8255505050565b600081356118d581611451565b80915050919050565b60008160801b9050919050565b600073ffffffff0000000000000000000000000000000061190b846118de565b9350801983169250808416831791505092915050565b600061193c61193761193284610bfb565b611708565b610bfb565b9050919050565b6000819050919050565b61195682611921565b61196961196282611943565b83546118eb565b8255505050565b600081016000830180611982816116bb565b905061198e818461173e565b5050506001810160208301806119a381611761565b90506119af81846117ea565b5050506002810160408301806119c481611761565b90506119d081846117ea565b5050506003810160608301806119e5816116bb565b90506119f1818461173e565b505050600381016080830180611a0681611824565b9050611a1281846118a5565b5050506003810160a0830180611a27816118c8565b9050611a33818461194d565b5050505050565b611a448282611970565b5050565b6000604082019050611a5d6000830185610bd0565b611a6a6020830184610bb7565b939250505056fea26469706673582212200c1772dfbff49357af6343db84069519e6109dd6c262904a53451bbccf46205f64736f6c63430008180033",
  "linkReferences": {},
  "deployedLinkReferences": {}
}