{
  "_format": "hh-sol-artifact-1",
  "contractName": "SolanaUpdater",
  "sourceName": "contracts/SolanaUpdater.sol",
  "abi": [
    {
      "inputs": [
        {
          "internalType": "address",
          "name": "_sp1Verifier",
          "type": "address"
        }
      ],
      "stateMutability": "nonpayable",
      "type": "constructor"
    },
    {
      "anonymous": false,
      "inputs": [
        {
          "indexed": true,
          "internalType": "address",
          "name": "oldAdmin",
          "type": "address"
        },
        {
          "indexed": true,
          "internalType": "address",
          "name": "newAdmin",
          "type": "address"
        }
      ],
      "name": "AdminChanged",
      "type": "event"
    },
    {
      "anonymous": false,
      "inputs": [
        {
          "indexed": true,
          "internalType": "uint64",
          "name": "slot",
          "type": "uint64"
        },
        {
          "indexed": false,
          "internalType": "bytes32",
          "name": "blockhash",
          "type": "bytes32"
        },
        {
          "indexed": false,
          "internalType": "uint64",
          "name": "blockHeight",
          "type": "uint64"
        }
      ],
      "name": "SolanaBlockUpdated",
      "type": "event"
    },
    {
      "inputs": [],
      "name": "admin",
      "outputs": [
        {
          "internalType": "address",
          "name": "",
          "type": "address"
        }
      ],
      "stateMutability": "view",
      "type": "function"
    },
    {
      "inputs": [],
      "name": "currentSlot",
      "outputs": [
        {
          "internalType": "uint64",
          "name": "",
          "type": "uint64"
        }
      ],
      "stateMutability": "view",
      "type": "function"
    },
    {
      "inputs": [
        {
          "internalType": "uint64",
          "name": "slot",
          "type": "uint64"
        }
      ],
      "name": "getSolanaBlock",
      "outputs": [
        {
          "components": [
            {
              "internalType": "uint64",
              "name": "slot",
              "type": "uint64"
            },
            {
              "internalType": "bytes32",
              "name": "blockhash",
              "type": "bytes32"
            },
            {
              "internalType": "bytes32",
              "name": "parentHash",
              "type": "bytes32"
            },
            {
              "internalType": "uint64",
              "name": "blockHeight",
              "type": "uint64"
            },
            {
              "internalType": "int64",
              "name": "timestamp",
              "type": "int64"
            },
            {
              "internalType": "uint32",
              "name": "confirmations",
              "type": "uint32"
            }
          ],
          "internalType": "struct SolanaUpdater.SolanaBlockHeader",
          "name": "",
          "type": "tuple"
        }
      ],
      "stateMutability": "view",
      "type": "function"
    },
    {
      "inputs": [
        {
          "internalType": "address",
          "name": "newAdmin",
          "type": "address"
        }
      ],
      "name": "setAdmin",
      "outputs": [],
      "stateMutability": "nonpayable",
      "type": "function"
    },
    {
      "inputs": [
        {
          "internalType": "address",
          "name": "newVerifier",
          "type": "address"
        }
      ],
      "name": "setVerifier",
      "outputs": [],
      "stateMutability": "nonpayable",
      "type": "function"
    },
    {
      "inputs": [
        {
          "internalType": "uint64",
          "name": "",
          "type": "uint64"
        }
      ],
      "name": "solanaHeaders",
      "outputs": [
        {
          "internalType": "uint64",
          "name": "slot",
          "type": "uint64"
        },
        {
          "internalType": "bytes32",
          "name": "blockhash",
          "type": "bytes32"
        },
        {
          "internalType": "bytes32",
          "name": "parentHash",
          "type": "bytes32"
        },
        {
          "internalType": "uint64",
          "name": "blockHeight",
          "type": "uint64"
        },
        {
          "internalType": "int64",
          "name": "timestamp",
          "type": "int64"
        },
        {
          "internalType": "uint32",
          "name": "confirmations",
          "type": "uint32"
        }
      ],
      "stateMutability": "view",
      "type": "function"
    },
    {
      "inputs": [],
      "name": "sp1Verifier",
      "outputs": [
        {
          "internalType": "address",
          "name": "",
          "type": "address"
        }
      ],
      "stateMutability": "view",
      "type": "function"
    },
    {
      "inputs": [
        {
          "internalType": "bytes[]",
          "name": "proofs",
          "type": "bytes[]"
        },
        {
          "components": [
            {
              "internalType": "uint64",
              "name": "slot",
              "type": "uint64"
            },
            {
              "internalType": "bytes32",
              "name": "blockhash",
              "type": "bytes32"
            },
            {
              "internalType": "bytes32",
              "name": "parentHash",
              "type": "bytes32"
            },
            {
              "internalType": "uint64",
              "name": "blockHeight",
              "type": "uint64"
            },
            {
              "internalType": "int64",
              "name": "timestamp",
              "type": "int64"
            },
            {
              "internalType": "uint32",
              "name": "confirmations",
              "type": "uint32"
            }
          ],
          "internalType": "struct SolanaUpdater.SolanaBlockHeader[]",
          "name": "headers",
          "type": "tuple[]"
        }
      ],
      "name": "updateBatchSolanaBlocks",
      "outputs": [],
      "stateMutability": "nonpayable",
      "type": "function"
    },
    {
      "inputs": [
        {
          "internalType": "bytes",
          "name": "proof",
          "type": "bytes"
        },
        {
          "components": [
            {
              "internalType": "uint64",
              "name": "slot",
              "type": "uint64"
            },
            {
              "internalType": "bytes32",
              "name": "blockhash",
              "type": "bytes32"
            },
            {
              "internalType": "bytes32",
              "name": "parentHash",
              "type": "bytes32"
            },
            {
              "internalType": "uint64",
              "name": "blockHeight",
              "type": "uint64"
            },
            {
              "internalType": "int64",
              "name": "timestamp",
              "type": "int64"
            },
            {
              "internalType": "uint32",
              "name": "confirmations",
              "type": "uint32"
            }
          ],
          "internalType": "struct SolanaUpdater.SolanaBlockHeader",
          "name": "header",
          "type": "tuple"
        }
      ],
      "name": "updateSolanaBlock",
      "outputs": [],
      "stateMutability": "nonpayable",
      "type": "function"
    },
    {
      "inputs": [
        {
          "internalType": "uint64",
          "name": "slot",
          "type": "uint64"
        },
        {
          "internalType": "bytes32",
          "name": "messageHash",
          "type": "bytes32"
        },
        {
          "internalType": "bytes32[]",
          "name": "merkleProof",
          "type": "bytes32[]"
        }
      ],
      "name": "verifyMessage",
      "outputs": [
        {
          "internalType": "bool",
          "name": "",
          "type": "bool"
        }
      ],
      "stateMutability": "view",
      "type": "function"
    }
  ],
  "bytecode": "0x60806040523480156200001157600080fd5b50604051620019673803806200196783398181016040528101906200003791906200012a565b33600160086101000a81548173ffffffffffffffffffffffffffffffffffffffff021916908373ffffffffffffffffffffffffffffffffffffffff16021790555080600260006101000a81548173ffffffffffffffffffffffffffffffffffffffff021916908373ffffffffffffffffffffffffffffffffffffffff160217905550506200015c565b600080fd5b600073ffffffffffffffffffffffffffffffffffffffff82169050919050565b6000620000f282620000c5565b9050919050565b6200010481620000e5565b81146200011057600080fd5b50565b6000815190506200012481620000f9565b92915050565b600060208284031215620001435762000142620000c0565b5b6000620001538482850162000113565b91505092915050565b6117fb806200016c6000396000f3fe608060405234801561001057600080fd5b506004361061009e5760003560e01c8063704b6c0211610066578063704b6c021461014c578063a99eb15114610168578063ac6c277414610198578063e66ca29f146101c8578063f851a440146101e45761009e565b8063106f74c5146100a35780632fb97871146100d85780633359632e146100f457806352a07fa3146101125780635437988d14610130575b600080fd5b6100bd60048036038101906100b89190610a81565b610202565b6040516100cf96959493929190610b11565b60405180910390f35b6100f260048036038101906100ed9190610bfb565b610283565b005b6100fc610506565b6040516101099190610c5b565b60405180910390f35b61011a610520565b6040516101279190610cb7565b60405180910390f35b61014a60048036038101906101459190610cfe565b610546565b005b61016660048036038101906101619190610cfe565b61061a565b005b610182600480360381019061017d9190610a81565b610770565b60405161018f9190610de2565b60405180910390f35b6101b260048036038101906101ad9190610e7f565b61086b565b6040516101bf9190610f0e565b60405180910390f35b6101e260048036038101906101dd9190610fd5565b610908565b005b6101ec6109b8565b6040516101f99190610cb7565b60405180910390f35b60006020528060005260406000206000915090508060000160009054906101000a900467ffffffffffffffff16908060010154908060020154908060030160009054906101000a900467ffffffffffffffff16908060030160089054906101000a900460070b908060030160109054906101000a900463ffffffff16905086565b60208160a00160208101906102989190611082565b63ffffffff1610156102df576040517f08c379a00000000000000000000000000000000000000000000000000000000081526004016102d69061110c565b60405180910390fd5b6000600160009054906101000a900467ffffffffffffffff1667ffffffffffffffff161115610412576000806000600160009054906101000a900467ffffffffffffffff1667ffffffffffffffff1667ffffffffffffffff16815260200190815260200160002090508060010154826040013514610392576040517f08c379a000000000000000000000000000000000000000000000000000000000815260040161038990611178565b60405180910390fd5b600160009054906101000a900467ffffffffffffffff1667ffffffffffffffff168260000160208101906103c69190610a81565b67ffffffffffffffff1611610410576040517f08c379a00000000000000000000000000000000000000000000000000000000081526004016104079061120a565b60405180910390fd5b505b806000808360000160208101906104299190610a81565b67ffffffffffffffff1667ffffffffffffffff168152602001908152602001600020818161045791906115a9565b90505080600001602081019061046d9190610a81565b600160006101000a81548167ffffffffffffffff021916908367ffffffffffffffff1602179055508060000160208101906104a89190610a81565b67ffffffffffffffff167f03ff4ef94d518ab5e8927510135895f940af63ac4678dd8d4509b5bd93e7f98c82602001358360600160208101906104eb9190610a81565b6040516104f99291906115b7565b60405180910390a2505050565b600160009054906101000a900467ffffffffffffffff1681565b600260009054906101000a900473ffffffffffffffffffffffffffffffffffffffff1681565b600160089054906101000a900473ffffffffffffffffffffffffffffffffffffffff1673ffffffffffffffffffffffffffffffffffffffff163373ffffffffffffffffffffffffffffffffffffffff16146105d6576040517f08c379a00000000000000000000000000000000000000000000000000000000081526004016105cd9061162c565b60405180910390fd5b80600260006101000a81548173ffffffffffffffffffffffffffffffffffffffff021916908373ffffffffffffffffffffffffffffffffffffffff16021790555050565b600160089054906101000a900473ffffffffffffffffffffffffffffffffffffffff1673ffffffffffffffffffffffffffffffffffffffff163373ffffffffffffffffffffffffffffffffffffffff16146106aa576040517f08c379a00000000000000000000000000000000000000000000000000000000081526004016106a19061162c565b60405180910390fd5b6000600160089054906101000a900473ffffffffffffffffffffffffffffffffffffffff16905081600160086101000a81548173ffffffffffffffffffffffffffffffffffffffff021916908373ffffffffffffffffffffffffffffffffffffffff1602179055508173ffffffffffffffffffffffffffffffffffffffff168173ffffffffffffffffffffffffffffffffffffffff167f7e644d79422f17c01e4894b5f4f588d331ebfa28653d42ae832dc59e38c9798f60405160405180910390a35050565b6107786109de565b6000808367ffffffffffffffff1667ffffffffffffffff1681526020019081526020016000206040518060c00160405290816000820160009054906101000a900467ffffffffffffffff1667ffffffffffffffff1667ffffffffffffffff16815260200160018201548152602001600282015481526020016003820160009054906101000a900467ffffffffffffffff1667ffffffffffffffff1667ffffffffffffffff1681526020016003820160089054906101000a900460070b60070b60070b81526020016003820160109054906101000a900463ffffffff1663ffffffff1663ffffffff16815250509050919050565b6000806000808767ffffffffffffffff1667ffffffffffffffff168152602001908152602001600020905060008160000160009054906101000a900467ffffffffffffffff1667ffffffffffffffff16036108fb576040517f08c379a00000000000000000000000000000000000000000000000000000000081526004016108f290611698565b60405180910390fd5b6001915050949350505050565b818190508484905014610950576040517f08c379a000000000000000000000000000000000000000000000000000000000815260040161094790611704565b60405180910390fd5b60005b828290508110156109b1576109a485858381811061097457610973611724565b5b90506020028101906109869190611762565b85858581811061099957610998611724565b5b905060c00201610283565b8080600101915050610953565b5050505050565b600160089054906101000a900473ffffffffffffffffffffffffffffffffffffffff1681565b6040518060c00160405280600067ffffffffffffffff1681526020016000801916815260200160008019168152602001600067ffffffffffffffff168152602001600060070b8152602001600063ffffffff1681525090565b600080fd5b600080fd5b600067ffffffffffffffff82169050919050565b610a5e81610a41565b8114610a6957600080fd5b50565b600081359050610a7b81610a55565b92915050565b600060208284031215610a9757610a96610a37565b5b6000610aa584828501610a6c565b91505092915050565b610ab781610a41565b82525050565b6000819050919050565b610ad081610abd565b82525050565b60008160070b9050919050565b610aec81610ad6565b82525050565b600063ffffffff82169050919050565b610b0b81610af2565b82525050565b600060c082019050610b266000830189610aae565b610b336020830188610ac7565b610b406040830187610ac7565b610b4d6060830186610aae565b610b5a6080830185610ae3565b610b6760a0830184610b02565b979650505050505050565b600080fd5b600080fd5b600080fd5b60008083601f840112610b9757610b96610b72565b5b8235905067ffffffffffffffff811115610bb457610bb3610b77565b5b602083019150836001820283011115610bd057610bcf610b7c565b5b9250929050565b600080fd5b600060c08284031215610bf257610bf1610bd7565b5b81905092915050565b600080600060e08486031215610c1457610c13610a37565b5b600084013567ffffffffffffffff811115610c3257610c31610a3c565b5b610c3e86828701610b81565b93509350506020610c5186828701610bdc565b9150509250925092565b6000602082019050610c706000830184610aae565b92915050565b600073ffffffffffffffffffffffffffffffffffffffff82169050919050565b6000610ca182610c76565b9050919050565b610cb181610c96565b82525050565b6000602082019050610ccc6000830184610ca8565b92915050565b610cdb81610c96565b8114610ce657600080fd5b50565b600081359050610cf881610cd2565b92915050565b600060208284031215610d1457610d13610a37565b5b6000610d2284828501610ce9565b91505092915050565b610d3481610a41565b82525050565b610d4381610abd565b82525050565b610d5281610ad6565b82525050565b610d6181610af2565b82525050565b60c082016000820151610d7d6000850182610d2b565b506020820151610d906020850182610d3a565b506040820151610da36040850182610d3a565b506060820151610db66060850182610d2b565b506080820151610dc96080850182610d49565b5060a0820151610ddc60a0850182610d58565b50505050565b600060c082019050610df76000830184610d67565b92915050565b610e0681610abd565b8114610e1157600080fd5b50565b600081359050610e2381610dfd565b92915050565b60008083601f840112610e3f57610e3e610b72565b5b8235905067ffffffffffffffff811115610e5c57610e5b610b77565b5b602083019150836020820283011115610e7857610e77610b7c565b5b9250929050565b60008060008060608587031215610e9957610e98610a37565b5b6000610ea787828801610a6c565b9450506020610eb887828801610e14565b935050604085013567ffffffffffffffff811115610ed957610ed8610a3c565b5b610ee587828801610e29565b925092505092959194509250565b60008115159050919050565b610f0881610ef3565b82525050565b6000602082019050610f236000830184610eff565b92915050565b60008083601f840112610f3f57610f3e610b72565b5b8235905067ffffffffffffffff811115610f5c57610f5b610b77565b5b602083019150836020820283011115610f7857610f77610b7c565b5b9250929050565b60008083601f840112610f9557610f94610b72565b5b8235905067ffffffffffffffff811115610fb257610fb1610b77565b5b6020830191508360c0820283011115610fce57610fcd610b7c565b5b9250929050565b60008060008060408587031215610fef57610fee610a37565b5b600085013567ffffffffffffffff81111561100d5761100c610a3c565b5b61101987828801610f29565b9450945050602085013567ffffffffffffffff81111561103c5761103b610a3c565b5b61104887828801610f7f565b925092505092959194509250565b61105f81610af2565b811461106a57600080fd5b50565b60008135905061107c81611056565b92915050565b60006020828403121561109857611097610a37565b5b60006110a68482850161106d565b91505092915050565b600082825260208201905092915050565b7f496e73756666696369656e7420636f6e6669726d6174696f6e73000000000000600082015250565b60006110f6601a836110af565b9150611101826110c0565b602082019050919050565b60006020820190508181036000830152611125816110e9565b9050919050565b7f506172656e742068617368206d69736d61746368000000000000000000000000600082015250565b60006111626014836110af565b915061116d8261112c565b602082019050919050565b6000602082019050818103600083015261119181611155565b9050919050565b7f536c6f74206d7573742062652067726561746572207468616e2063757272656e60008201527f7400000000000000000000000000000000000000000000000000000000000000602082015250565b60006111f46021836110af565b91506111ff82611198565b604082019050919050565b60006020820190508181036000830152611223816111e7565b9050919050565b6000813561123781610a55565b80915050919050565b60008160001b9050919050565b600067ffffffffffffffff61126184611240565b9350801983169250808416831791505092915050565b6000819050919050565b600061129c61129761129284610a41565b611277565b610a41565b9050919050565b6000819050919050565b6112b682611281565b6112c96112c2826112a3565b835461124d565b8255505050565b600081356112dd81610dfd565b80915050919050565b60007fffffffffffffffffffffffffffffffffffffffffffffffffffffffffffffffff61131284611240565b9350801983169250808416831791505092915050565b600061133382610abd565b9050919050565b60008160001c9050919050565b60006113528261133a565b9050919050565b61136282611328565b61137561136e82611347565b83546112e6565b8255505050565b61138581610ad6565b811461139057600080fd5b50565b600081356113a08161137c565b80915050919050565b60008160401b9050919050565b60006fffffffffffffffff00000000000000006113d2846113a9565b9350801983169250808416831791505092915050565b60006114036113fe6113f984610ad6565b611277565b610ad6565b9050919050565b6000819050919050565b61141d826113e8565b6114306114298261140a565b83546113b6565b8255505050565b6000813561144481611056565b80915050919050565b60008160801b9050919050565b600073ffffffff0000000000000000000000000000000061147a8461144d565b9350801983169250808416831791505092915050565b60006114ab6114a66114a184610af2565b611277565b610af2565b9050919050565b6000819050919050565b6114c582611490565b6114d86114d1826114b2565b835461145a565b8255505050565b6000810160008301806114f18161122a565b90506114fd81846112ad565b505050600181016020830180611512816112d0565b905061151e8184611359565b505050600281016040830180611533816112d0565b905061153f8184611359565b5050506003810160608301806115548161122a565b905061156081846112ad565b50505060038101608083018061157581611393565b90506115818184611414565b5050506003810160a083018061159681611437565b90506115a281846114bc565b5050505050565b6115b382826114df565b5050565b60006040820190506115cc6000830185610ac7565b6115d96020830184610aae565b9392505050565b7f4f6e6c792061646d696e00000000000000000000000000000000000000000000600082015250565b6000611616600a836110af565b9150611621826115e0565b602082019050919050565b6000602082019050818103600083015261164581611609565b9050919050565b7f426c6f636b206e6f7420666f756e640000000000000000000000000000000000600082015250565b6000611682600f836110af565b915061168d8261164c565b602082019050919050565b600060208201905081810360008301526116b181611675565b9050919050565b7f4c656e677468206d69736d617463680000000000000000000000000000000000600082015250565b60006116ee600f836110af565b91506116f9826116b8565b602082019050919050565b6000602082019050818103600083015261171d816116e1565b9050919050565b7f4e487b7100000000000000000000000000000000000000000000000000000000600052603260045260246000fd5b600080fd5b600080fd5b600080fd5b6000808335600160200384360303811261177f5761177e611753565b5b80840192508235915067ffffffffffffffff8211156117a1576117a0611758565b5b6020830192506001820236038313156117bd576117bc61175d565b5b50925092905056fea2646970667358221220c28ef029f1d71b3af4c5f655a466fa7e9ea0f1407e662f50b7ece337e0eb2df564736f6c63430008180033",
  "linkReferences": {},
  "deployedLinkReferences": {}
}