{"contracts/SolanaUpdater.sol":{"SolanaUpdater":{"abi":[{"inputs":[{"internalType":"address","name":"_sp1Verifier","type":"address"}],"stateMutability":"nonpayable","type":"constructor"},{"anonymous":false,"inputs":[{"indexed":true,"internalType":"address","name":"oldAdmin","type":"address"},{"indexed":true,"internalType":"address","name":"newAdmin","type":"address"}],"name":"AdminChanged","type":"event"},{"anonymous":false,"inputs":[{"indexed":true,"internalType":"uint64","name":"slot","type":"uint64"},{"indexed":false,"internalType":"bytes32","name":"blockhash","type":"bytes32"},{"indexed":false,"internalType":"uint64","name":"blockHeight","type":"uint64"}],"name":"SolanaBlockUpdated","type":"event"},{"inputs":[],"name":"admin","outputs":[{"internalType":"address","name":"","type":"address"}],"stateMutability":"view","type":"function"},{"inputs":[],"name":"currentSlot","outputs":[{"internalType":"uint64","name":"","type":"uint64"}],"stateMutability":"view","type":"function"},{"inputs":[{"internalType":"uint64","name":"slot","type":"uint64"}],"name":"getSolanaBlock","outputs":[{"components":[{"internalType":"uint64","name":"slot","type":"uint64"},{"internalType":"bytes32","name":"blockhash","type":"bytes32"},{"internalType":"bytes32","name":"parentHash","type":"bytes32"},{"internalType":"uint64","name":"blockHeight","type":"uint64"},{"internalType":"int64","name":"timestamp","type":"int64"},{"internalType":"uint32","name":"confirmations","type":"uint32"}],"internalType":"struct SolanaUpdater.SolanaBlockHeader","name":"","type":"tuple"}],"stateMutability":"view","type":"function"},{"inputs":[{"internalType":"address","name":"newAdmin","type":"address"}],"name":"setAdmin","outputs":[],"stateMutability":"nonpayable","type":"function"},{"inputs":[{"internalType":"address","name":"newVerifier","type":"address"}],"name":"setVerifier","outputs":[],"stateMutability":"nonpayable","type":"function"},{"inputs":[{"internalType":"uint64","name":"","type":"uint64"}],"name":"solanaHeaders","outputs":[{"internalType":"uint64","name":"slot","type":"uint64"},{"internalType":"bytes32","name":"blockhash","type":"bytes32"},{"internalType":"bytes32","name":"parentHash","type":"bytes32"},{"internalType":"uint64","name":"blockHeight","type":"uint64"},{"internalType":"int64","name":"timestamp","type":"int64"},{"internalType":"uint32","name":"confirmations","type":"uint32"}],"stateMutability":"view","type":"function"},{"inputs":[],"name":"sp1Verifier","outputs":[{"internalType":"address","name":"","type":"address"}],"stateMutability":"view","type":"function"},{"inputs":[{"internalType":"bytes32","name":"programVKey","type":"bytes32"},{"internalType":"bytes[]","name":"publicValues","type":"bytes[]"},{"internalType":"bytes[]","name":"proofs","type":"bytes[]"},{"components":[{"internalType":"uint64","name":"slot","type":"uint64"},{"internalType":"bytes32","name":"blockhash","type":"bytes32"},{"internalType":"bytes32","name":"parentHash","type":"bytes32"},{"internalType":"uint64","name":"blockHeight","type":"uint64"},{"internalType":"int64","name":"timestamp","type":"int64"},{"internalType":"uint32","name":"confirmations","type":"uint32"}],"internalType":"struct SolanaUpdater.SolanaBlockHeader[]","name":"headers","type":"tuple[]"}],"name":"updateBatchSolanaBlocks","outputs":[],"stateMutability":"nonpayable","type":"function"},{"inputs":[{"internalType":"bytes32","name":"programVKey","type":"bytes32"},{"internalType":"bytes","name":"publicValues","type":"bytes"},{"internalType":"bytes","name":"proof","type":"bytes"},{"components":[{"internalType":"uint64","name":"slot","type":"uint64"},{"internalType":"bytes32","name":"blockhash","type":"bytes32"},{"internalType":"bytes32","name":"parentHash","type":"bytes32"},{"internalType":"uint64","name":"blockHeight","type":"uint64"},{"internalType":"int64","name":"timestamp","type":"int64"},{"internalType":"uint32","name":"confirmations","type":"uint32"}],"internalType":"struct SolanaUpdater.SolanaBlockHeader","name":"header","type":"tuple"}],"name":"updateSolanaBlock","outputs":[],"stateMutability":"nonpayable","type":"function"},{"inputs":[{"internalType":"uint64","name":"slot","type":"uint64"},{"internalType":"bytes32","name":"messageHash","type":"bytes32"},{"internalType":"bytes32[]","name":"merkleProof","type":"bytes32[]"}],"name":"verifyMessage","outputs":[{"internalType":"bool","name":"","type":"bool"}],"stateMutability":"view","type":"function"}],"evm":{"bytecode":{"linkReferences":{},"object":"60806040523480156200001157600080fd5b5060405162001c1338038062001c1383398181016040528101906200003791906200012a565b33600160086101000a81548173ffffffffffffffffffffffffffffffffffffffff021916908373ffffffffffffffffffffffffffffffffffffffff16021790555080600260006101000a81548173ffffffffffffffffffffffffffffffffffffffff021916908373ffffffffffffffffffffffffffffffffffffffff160217905550506200015c565b600080fd5b600073ffffffffffffffffffffffffffffffffffffffff82169050919050565b6000620000f282620000c5565b9050919050565b6200010481620000e5565b81146200011057600080fd5b50565b6000815190506200012481620000f9565b92915050565b600060208284031215620001435762000142620000c0565b5b6000620001538482850162000113565b91505092915050565b611aa7806200016c6000396000f3fe608060405234801561001057600080fd5b506004361061009e5760003560e01c8063731b02aa11610066578063731b02aa1461014c578063a99eb15114610168578063ac6c277414610198578063f7248140146101c8578063f851a440146101e45761009e565b8063106f74c5146100a35780633359632e146100d857806352a07fa3146100f65780635437988d14610114578063704b6c0214610130575b600080fd5b6100bd60048036038101906100b89190610b8a565b610202565b6040516100cf96959493929190610c1a565b60405180910390f35b6100e0610283565b6040516100ed9190610c7b565b60405180910390f35b6100fe61029d565b60405161010b9190610cd7565b60405180910390f35b61012e60048036038101906101299190610d1e565b6102c3565b005b61014a60048036038101906101459190610d1e565b610397565b005b61016660048036038101906101619190610e32565b6104ed565b005b610182600480360381019061017d9190610b8a565b61060e565b60405161018f9190610fb2565b60405180910390f35b6101b260048036038101906101ad9190611023565b610709565b6040516101bf91906110b2565b60405180910390f35b6101e260048036038101906101dd9190611147565b6107a6565b005b6101ec610ac1565b6040516101f99190610cd7565b60405180910390f35b60006020528060005260406000206000915090508060000160009054906101000a900467ffffffffffffffff16908060010154908060020154908060030160009054906101000a900467ffffffffffffffff16908060030160089054906101000a900460070b908060030160109054906101000a900463ffffffff16905086565b600160009054906101000a900467ffffffffffffffff1681565b600260009054906101000a900473ffffffffffffffffffffffffffffffffffffffff1681565b600160089054906101000a900473ffffffffffffffffffffffffffffffffffffffff1673ffffffffffffffffffffffffffffffffffffffff163373ffffffffffffffffffffffffffffffffffffffff1614610353576040517f08c379a000000000000000000000000000000000000000000000000000000000815260040161034a9061124c565b60405180910390fd5b80600260006101000a81548173ffffffffffffffffffffffffffffffffffffffff021916908373ffffffffffffffffffffffffffffffffffffffff16021790555050565b600160089054906101000a900473ffffffffffffffffffffffffffffffffffffffff1673ffffffffffffffffffffffffffffffffffffffff163373ffffffffffffffffffffffffffffffffffffffff1614610427576040517f08c379a000000000000000000000000000000000000000000000000000000000815260040161041e9061124c565b60405180910390fd5b6000600160089054906101000a900473ffffffffffffffffffffffffffffffffffffffff16905081600160086101000a81548173ffffffffffffffffffffffffffffffffffffffff021916908373ffffffffffffffffffffffffffffffffffffffff1602179055508173ffffffffffffffffffffffffffffffffffffffff168173ffffffffffffffffffffffffffffffffffffffff167f7e644d79422f17c01e4894b5f4f588d331ebfa28653d42ae832dc59e38c9798f60405160405180910390a35050565b818190508484905014610535576040517f08c379a000000000000000000000000000000000000000000000000000000000815260040161052c906112b8565b60405180910390fd5b81819050868690501461057d576040517f08c379a000000000000000000000000000000000000000000000000000000000815260040161057490611324565b60405180910390fd5b60005b82829050811015610604576105f7888888848181106105a2576105a1611344565b5b90506020028101906105b49190611382565b8888868181106105c7576105c6611344565b5b90506020028101906105d99190611382565b8888888181106105ec576105eb611344565b5b905060c002016107a6565b8080600101915050610580565b5050505050505050565b610616610ae7565b6000808367ffffffffffffffff1667ffffffffffffffff1681526020019081526020016000206040518060c00160405290816000820160009054906101000a900467ffffffffffffffff1667ffffffffffffffff1667ffffffffffffffff16815260200160018201548152602001600282015481526020016003820160009054906101000a900467ffffffffffffffff1667ffffffffffffffff1667ffffffffffffffff1681526020016003820160089054906101000a900460070b60070b60070b81526020016003820160109054906101000a900463ffffffff1663ffffffff1663ffffffff16815250509050919050565b6000806000808767ffffffffffffffff1667ffffffffffffffff168152602001908152602001600020905060008160000160009054906101000a900467ffffffffffffffff1667ffffffffffffffff1603610799576040517f08c379a000000000000000000000000000000000000000000000000000000000815260040161079090611431565b60405180910390fd5b6001915050949350505050565b60208160a00160208101906107bb919061147d565b63ffffffff161015610802576040517f08c379a00000000000000000000000000000000000000000000000000000000081526004016107f9906114f6565b60405180910390fd5b6000600160009054906101000a900467ffffffffffffffff1667ffffffffffffffff161115610935576000806000600160009054906101000a900467ffffffffffffffff1667ffffffffffffffff1667ffffffffffffffff168152602001908152602001600020905080600101548260400135146108b5576040517f08c379a00000000000000000000000000000000000000000000000000000000081526004016108ac90611562565b60405180910390fd5b600160009054906101000a900467ffffffffffffffff1667ffffffffffffffff168260000160208101906108e99190610b8a565b67ffffffffffffffff1611610933576040517f08c379a000000000000000000000000000000000000000000000000000000000815260040161092a906115f4565b60405180910390fd5b505b600260009054906101000a900473ffffffffffffffffffffffffffffffffffffffff1673ffffffffffffffffffffffffffffffffffffffff166341493c6087878787876040518663ffffffff1660e01b8152600401610998959493929190611672565b600060405180830381600087803b1580156109b257600080fd5b505af11580156109c6573d6000803e3d6000fd5b50505050806000808360000160208101906109e19190610b8a565b67ffffffffffffffff1667ffffffffffffffff1681526020019081526020016000208181610a0f9190611a3a565b905050806000016020810190610a259190610b8a565b600160006101000a81548167ffffffffffffffff021916908367ffffffffffffffff160217905550806000016020810190610a609190610b8a565b67ffffffffffffffff167f03ff4ef94d518ab5e8927510135895f940af63ac4678dd8d4509b5bd93e7f98c8260200135836060016020810190610aa39190610b8a565b604051610ab1929190611a48565b60405180910390a2505050505050565b600160089054906101000a900473ffffffffffffffffffffffffffffffffffffffff1681565b6040518060c00160405280600067ffffffffffffffff1681526020016000801916815260200160008019168152602001600067ffffffffffffffff168152602001600060070b8152602001600063ffffffff1681525090565b600080fd5b600080fd5b600067ffffffffffffffff82169050919050565b610b6781610b4a565b8114610b7257600080fd5b50565b600081359050610b8481610b5e565b92915050565b600060208284031215610ba057610b9f610b40565b5b6000610bae84828501610b75565b91505092915050565b610bc081610b4a565b82525050565b6000819050919050565b610bd981610bc6565b82525050565b60008160070b9050919050565b610bf581610bdf565b82525050565b600063ffffffff82169050919050565b610c1481610bfb565b82525050565b600060c082019050610c2f6000830189610bb7565b610c3c6020830188610bd0565b610c496040830187610bd0565b610c566060830186610bb7565b610c636080830185610bec565b610c7060a0830184610c0b565b979650505050505050565b6000602082019050610c906000830184610bb7565b92915050565b600073ffffffffffffffffffffffffffffffffffffffff82169050919050565b6000610cc182610c96565b9050919050565b610cd181610cb6565b82525050565b6000602082019050610cec6000830184610cc8565b92915050565b610cfb81610cb6565b8114610d0657600080fd5b50565b600081359050610d1881610cf2565b92915050565b600060208284031215610d3457610d33610b40565b5b6000610d4284828501610d09565b91505092915050565b610d5481610bc6565b8114610d5f57600080fd5b50565b600081359050610d7181610d4b565b92915050565b600080fd5b600080fd5b600080fd5b60008083601f840112610d9c57610d9b610d77565b5b8235905067ffffffffffffffff811115610db957610db8610d7c565b5b602083019150836020820283011115610dd557610dd4610d81565b5b9250929050565b60008083601f840112610df257610df1610d77565b5b8235905067ffffffffffffffff811115610e0f57610e0e610d7c565b5b6020830191508360c0820283011115610e2b57610e2a610d81565b5b9250929050565b60008060008060008060006080888a031215610e5157610e50610b40565b5b6000610e5f8a828b01610d62565b975050602088013567ffffffffffffffff811115610e8057610e7f610b45565b5b610e8c8a828b01610d86565b9650965050604088013567ffffffffffffffff811115610eaf57610eae610b45565b5b610ebb8a828b01610d86565b9450945050606088013567ffffffffffffffff811115610ede57610edd610b45565b5b610eea8a828b01610ddc565b925092505092959891949750929550565b610f0481610b4a565b82525050565b610f1381610bc6565b82525050565b610f2281610bdf565b82525050565b610f3181610bfb565b82525050565b60c082016000820151610f4d6000850182610efb565b506020820151610f606020850182610f0a565b506040820151610f736040850182610f0a565b506060820151610f866060850182610efb565b506080820151610f996080850182610f19565b5060a0820151610fac60a0850182610f28565b50505050565b600060c082019050610fc76000830184610f37565b92915050565b60008083601f840112610fe357610fe2610d77565b5b8235905067ffffffffffffffff81111561100057610fff610d7c565b5b60208301915083602082028301111561101c5761101b610d81565b5b9250929050565b6000806000806060858703121561103d5761103c610b40565b5b600061104b87828801610b75565b945050602061105c87828801610d62565b935050604085013567ffffffffffffffff81111561107d5761107c610b45565b5b61108987828801610fcd565b925092505092959194509250565b60008115159050919050565b6110ac81611097565b82525050565b60006020820190506110c760008301846110a3565b92915050565b60008083601f8401126110e3576110e2610d77565b5b8235905067ffffffffffffffff811115611100576110ff610d7c565b5b60208301915083600182028301111561111c5761111b610d81565b5b9250929050565b600080fd5b600060c0828403121561113e5761113d611123565b5b81905092915050565b600080600080600080610120878903121561116557611164610b40565b5b600061117389828a01610d62565b965050602087013567ffffffffffffffff81111561119457611193610b45565b5b6111a089828a016110cd565b9550955050604087013567ffffffffffffffff8111156111c3576111c2610b45565b5b6111cf89828a016110cd565b935093505060606111e289828a01611128565b9150509295509295509295565b600082825260208201905092915050565b7f4f6e6c792061646d696e00000000000000000000000000000000000000000000600082015250565b6000611236600a836111ef565b915061124182611200565b602082019050919050565b6000602082019050818103600083015261126581611229565b9050919050565b7f4c656e677468206d69736d617463680000000000000000000000000000000000600082015250565b60006112a2600f836111ef565b91506112ad8261126c565b602082019050919050565b600060208201905081810360008301526112d181611295565b9050919050565b7f5075626c69632076616c756573206c656e677468206d69736d61746368000000600082015250565b600061130e601d836111ef565b9150611319826112d8565b602082019050919050565b6000602082019050818103600083015261133d81611301565b9050919050565b7f4e487b7100000000000000000000000000000000000000000000000000000000600052603260045260246000fd5b600080fd5b600080fd5b600080fd5b6000808335600160200384360303811261139f5761139e611373565b5b80840192508235915067ffffffffffffffff8211156113c1576113c0611378565b5b6020830192506001820236038313156113dd576113dc61137d565b5b509250929050565b7f426c6f636b206e6f7420666f756e640000000000000000000000000000000000600082015250565b600061141b600f836111ef565b9150611426826113e5565b602082019050919050565b6000602082019050818103600083015261144a8161140e565b9050919050565b61145a81610bfb565b811461146557600080fd5b50565b60008135905061147781611451565b92915050565b60006020828403121561149357611492610b40565b5b60006114a184828501611468565b91505092915050565b7f496e73756666696369656e7420636f6e6669726d6174696f6e73000000000000600082015250565b60006114e0601a836111ef565b91506114eb826114aa565b602082019050919050565b6000602082019050818103600083015261150f816114d3565b9050919050565b7f506172656e742068617368206d69736d61746368000000000000000000000000600082015250565b600061154c6014836111ef565b915061155782611516565b602082019050919050565b6000602082019050818103600083015261157b8161153f565b9050919050565b7f536c6f74206d7573742062652067726561746572207468616e2063757272656e60008201527f7400000000000000000000000000000000000000000000000000000000000000602082015250565b60006115de6021836111ef565b91506115e982611582565b604082019050919050565b6000602082019050818103600083015261160d816115d1565b9050919050565b600082825260208201905092915050565b82818337600083830152505050565b6000601f19601f8301169050919050565b60006116518385611614565b935061165e838584611625565b61166783611634565b840190509392505050565b60006060820190506116876000830188610bd0565b818103602083015261169a818688611645565b905081810360408301526116af818486611645565b90509695505050505050565b600081356116c881610b5e565b80915050919050565b60008160001b9050919050565b600067ffffffffffffffff6116f2846116d1565b9350801983169250808416831791505092915050565b6000819050919050565b600061172d61172861172384610b4a565b611708565b610b4a565b9050919050565b6000819050919050565b61174782611712565b61175a61175382611734565b83546116de565b8255505050565b6000813561176e81610d4b565b80915050919050565b60007fffffffffffffffffffffffffffffffffffffffffffffffffffffffffffffffff6117a3846116d1565b9350801983169250808416831791505092915050565b60006117c482610bc6565b9050919050565b60008160001c9050919050565b60006117e3826117cb565b9050919050565b6117f3826117b9565b6118066117ff826117d8565b8354611777565b8255505050565b61181681610bdf565b811461182157600080fd5b50565b600081356118318161180d565b80915050919050565b60008160401b9050919050565b60006fffffffffffffffff00000000000000006118638461183a565b9350801983169250808416831791505092915050565b600061189461188f61188a84610bdf565b611708565b610bdf565b9050919050565b6000819050919050565b6118ae82611879565b6118c16118ba8261189b565b8354611847565b8255505050565b600081356118d581611451565b80915050919050565b60008160801b9050919050565b600073ffffffff0000000000000000000000000000000061190b846118de565b9350801983169250808416831791505092915050565b600061193c61193761193284610bfb565b611708565b610bfb565b9050919050565b6000819050919050565b61195682611921565b61196961196282611943565b83546118eb565b8255505050565b600081016000830180611982816116bb565b905061198e818461173e565b5050506001810160208301806119a381611761565b90506119af81846117ea565b5050506002810160408301806119c481611761565b90506119d081846117ea565b5050506003810160608301806119e5816116bb565b90506119f1818461173e565b505050600381016080830180611a0681611824565b9050611a1281846118a5565b5050506003810160a0830180611a27816118c8565b9050611a33818461194d565b5050505050565b611a448282611970565b5050565b6000604082019050611a5d6000830185610bd0565b611a6a6020830184610bb7565b939250505056fea26469706673582212200c1772dfbff49357af6343db84069519e6109dd6c262904a53451bbccf46205f64736f6c63430008180033","opcodes":"PUSH1 0x80 PUSH1 0x40 MSTORE CALLVALUE DUP1 ISZERO PUSH3 0x11 JUMPI PUSH1 0x0 DUP1 REVERT JUMPDEST POP PUSH1 0x40 MLOAD PUSH3 0x1C13 CODESIZE SUB DUP1 PUSH3 0x1C13 DUP4 CODECOPY DUP2 DUP2 ADD PUSH1 0x40 MSTORE DUP2 ADD SWAP1 PUSH3 0x37 SWAP2 SWAP1 PUSH3 0x12A JUMP JUMPDEST CALLER PUSH1 0x1 PUSH1 0x8 PUSH2 0x100 EXP DUP2 SLOAD DUP2 PUSH20 0xFFFFFFFFFFFFFFFFFFFFFFFFFFFFFFFFFFFFFFFF MUL NOT AND SWAP1 DUP4 PUSH20 0xFFFFFFFFFFFFFFFFFFFFFFFFFFFFFFFFFFFFFFFF AND MUL OR SWAP1 SSTORE POP DUP1 PUSH1 0x2 PUSH1 0x0 PUSH2 0x100 EXP DUP2 SLOAD DUP2 PUSH20 0xFFFFFFFFFFFFFFFFFFFFFFFFFFFFFFFFFFFFFFFF MUL NOT AND SWAP1 DUP4 PUSH20 0xFFFFFFFFFFFFFFFFFFFFFFFFFFFFFFFFFFFFFFFF AND MUL OR SWAP1 SSTORE POP POP PUSH3 0x15C JUMP JUMPDEST PUSH1 0x0 DUP1 REVERT JUMPDEST PUSH1 0x0 PUSH20 0xFFFFFFFFFFFFFFFFFFFFFFFFFFFFFFFFFFFFFFFF DUP3 AND SWAP1 POP SWAP2 SWAP1 POP JUMP JUMPDEST PUSH1 0x0 PUSH3 0xF2 DUP3 PUSH3 0xC5 JUMP JUMPDEST SWAP1 POP SWAP2 SWAP1 POP JUMP JUMPDEST PUSH3 0x104 DUP2 PUSH3 0xE5 JUMP JUMPDEST DUP2 EQ PUSH3 0x110 JUMPI PUSH1 0x0 DUP1 REVERT JUMPDEST POP JUMP JUMPDEST PUSH1 0x0 DUP2 MLOAD SWAP1 POP PUSH3 0x124 DUP2 PUSH3 0xF9 JUMP JUMPDEST SWAP3 SWAP2 POP POP JUMP JUMPDEST PUSH1 0x0 PUSH1 0x20 DUP3 DUP5 SUB SLT ISZERO PUSH3 0x143 JUMPI PUSH3 0x142 PUSH3 0xC0 JUMP JUMPDEST JUMPDEST PUSH1 0x0 PUSH3 0x153 DUP5 DUP3 DUP6 ADD PUSH3 0x113 JUMP JUMPDEST SWAP2 POP POP SWAP3 SWAP2 POP POP JUMP JUMPDEST PUSH2 0x1AA7 DUP1 PUSH3 0x16C PUSH1 0x0 CODECOPY PUSH1 0x0 RETURN INVALID PUSH1 0x80 PUSH1 0x40 MSTORE CALLVALUE DUP1 ISZERO PUSH2 0x10 JUMPI PUSH1 0x0 DUP1 REVERT JUMPDEST POP PUSH1 0x4 CALLDATASIZE LT PUSH2 0x9E JUMPI PUSH1 0x0 CALLDATALOAD PUSH1 0xE0 SHR DUP1 PUSH4 0x731B02AA GT PUSH2 0x66 JUMPI DUP1 PUSH4 0x731B02AA EQ PUSH2 0x14C JUMPI DUP1 PUSH4 0xA99EB151 EQ PUSH2 0x168 JUMPI DUP1 PUSH4 0xAC6C2774 EQ PUSH2 0x198 JUMPI DUP1 PUSH4 0xF7248140 EQ PUSH2 0x1C8 JUMPI DUP1 PUSH4 0xF851A440 EQ PUSH2 0x1E4 JUMPI PUSH2 0x9E JUMP JUMPDEST DUP1 PUSH4 0x106F74C5 EQ PUSH2 0xA3 JUMPI DUP1 PUSH4 0x3359632E EQ PUSH2 0xD8 JUMPI DUP1 PUSH4 0x52A07FA3 EQ PUSH2 0xF6 JUMPI DUP1 PUSH4 0x5437988D EQ PUSH2 0x114 JUMPI DUP1 PUSH4 0x704B6C02 EQ PUSH2 0x130 JUMPI JUMPDEST PUSH1 0x0 DUP1 REVERT JUMPDEST PUSH2 0xBD PUSH1 0x4 DUP1 CALLDATASIZE SUB DUP2 ADD SWAP1 PUSH2 0xB8 SWAP2 SWAP1 PUSH2 0xB8A JUMP JUMPDEST PUSH2 0x202 JUMP JUMPDEST PUSH1 0x40 MLOAD PUSH2 0xCF SWAP7 SWAP6 SWAP5 SWAP4 SWAP3 SWAP2 SWAP1 PUSH2 0xC1A JUMP JUMPDEST PUSH1 0x40 MLOAD DUP1 SWAP2 SUB SWAP1 RETURN JUMPDEST PUSH2 0xE0 PUSH2 0x283 JUMP JUMPDEST PUSH1 0x40 MLOAD PUSH2 0xED SWAP2 SWAP1 PUSH2 0xC7B JUMP JUMPDEST PUSH1 0x40 MLOAD DUP1 SWAP2 SUB SWAP1 RETURN JUMPDEST PUSH2 0xFE PUSH2 0x29D JUMP JUMPDEST PUSH1 0x40 MLOAD PUSH2 0x10B SWAP2 SWAP1 PUSH2 0xCD7 JUMP JUMPDEST PUSH1 0x40 MLOAD DUP1 SWAP2 SUB SWAP1 RETURN JUMPDEST PUSH2 0x12E PUSH1 0x4 DUP1 CALLDATASIZE SUB DUP2 ADD SWAP1 PUSH2 0x129 SWAP2 SWAP1 PUSH2 0xD1E JUMP JUMPDEST PUSH2 0x2C3 JUMP JUMPDEST STOP JUMPDEST PUSH2 0x14A PUSH1 0x4 DUP1 CALLDATASIZE SUB DUP2 ADD SWAP1 PUSH2 0x145 SWAP2 SWAP1 PUSH2 0xD1E JUMP JUMPDEST PUSH2 0x397 JUMP JUMPDEST STOP JUMPDEST PUSH2 0x166 PUSH1 0x4 DUP1 CALLDATASIZE SUB DUP2 ADD SWAP1 PUSH2 0x161 SWAP2 SWAP1 PUSH2 0xE32 JUMP JUMPDEST PUSH2 0x4ED JUMP JUMPDEST STOP JUMPDEST PUSH2 0x182 PUSH1 0x4 DUP1 CALLDATASIZE SUB DUP2 ADD SWAP1 PUSH2 0x17D SWAP2 SWAP1 PUSH2 0xB8A JUMP JUMPDEST PUSH2 0x60E JUMP JUMPDEST PUSH1 0x40 MLOAD PUSH2 0x18F SWAP2 SWAP1 PUSH2 0xFB2 JUMP JUMPDEST PUSH1 0x40 MLOAD DUP1 SWAP2 SUB SWAP1 RETURN JUMPDEST PUSH2 0x1B2 PUSH1 0x4 DUP1 CALLDATASIZE SUB DUP2 ADD SWAP1 PUSH2 0x1AD SWAP2 SWAP1 PUSH2 0x1023 JUMP JUMPDEST PUSH2 0x709 JUMP JUMPDEST PUSH1 0x40 MLOAD PUSH2 0x1BF SWAP2 SWAP1 PUSH2 0x10B2 JUMP JUMPDEST PUSH1 0x40 MLOAD DUP1 SWAP2 SUB SWAP1 RETURN JUMPDEST PUSH2 0x1E2 PUSH1 0x4 DUP1 CALLDATASIZE SUB DUP2 ADD SWAP1 PUSH2 0x1DD SWAP2 SWAP1 PUSH2 0x1147 JUMP JUMPDEST PUSH2 0x7A6 JUMP JUMPDEST STOP JUMPDEST PUSH2 0x1EC PUSH2 0xAC1 JUMP JUMPDEST PUSH1 0x40 MLOAD PUSH2 0x1F9 SWAP2 SWAP1 PUSH2 0xCD7 JUMP JUMPDEST PUSH1 0x40 MLOAD DUP1 SWAP2 SUB SWAP1 RETURN JUMPDEST PUSH1 0x0 PUSH1 0x20 MSTORE DUP1 PUSH1 0x0 MSTORE PUSH1 0x40 PUSH1 0x0 KECCAK256 PUSH1 0x0 SWAP2 POP SWAP1 POP DUP1 PUSH1 0x0 ADD PUSH1 0x0 SWAP1 SLOAD SWAP1 PUSH2 0x100 EXP SWAP1 DIV PUSH8 0xFFFFFFFFFFFFFFFF AND SWAP1 DUP1 PUSH1 0x1 ADD SLOAD SWAP1 DUP1 PUSH1 0x2 ADD SLOAD SWAP1 DUP1 PUSH1 0x3 ADD PUSH1 0x0 SWAP1 SLOAD SWAP1 PUSH2 0x100 EXP SWAP1 DIV PUSH8 0xFFFFFFFFFFFFFFFF AND SWAP1 DUP1 PUSH1 0x3 ADD PUSH1 0x8 SWAP1 SLOAD SWAP1 PUSH2 0x100 EXP SWAP1 DIV PUSH1 0x7 SIGNEXTEND SWAP1 DUP1 PUSH1 0x3 ADD PUSH1 0x10 SWAP1 SLOAD SWAP1 PUSH2 0x100 EXP SWAP1 DIV PUSH4 0xFFFFFFFF AND SWAP1 POP DUP7 JUMP JUMPDEST PUSH1 0x1 PUSH1 0x0 SWAP1 SLOAD SWAP1 PUSH2 0x100 EXP SWAP1 DIV PUSH8 0xFFFFFFFFFFFFFFFF AND DUP2 JUMP JUMPDEST PUSH1 0x2 PUSH1 0x0 SWAP1 SLOAD SWAP1 PUSH2 0x100 EXP SWAP1 DIV PUSH20 0xFFFFFFFFFFFFFFFFFFFFFFFFFFFFFFFFFFFFFFFF AND DUP2 JUMP JUMPDEST PUSH1 0x1 PUSH1 0x8 SWAP1 SLOAD SWAP1 PUSH2 0x100 EXP SWAP1 DIV PUSH20 0xFFFFFFFFFFFFFFFFFFFFFFFFFFFFFFFFFFFFFFFF AND PUSH20 0xFFFFFFFFFFFFFFFFFFFFFFFFFFFFFFFFFFFFFFFF AND CALLER PUSH20 0xFFFFFFFFFFFFFFFFFFFFFFFFFFFFFFFFFFFFFFFF AND EQ PUSH2 0x353 JUMPI PUSH1 0x40 MLOAD PUSH32 0x8C379A000000000000000000000000000000000000000000000000000000000 DUP2 MSTORE PUSH1 0x4 ADD PUSH2 0x34A SWAP1 PUSH2 0x124C JUMP JUMPDEST PUSH1 0x40 MLOAD DUP1 SWAP2 SUB SWAP1 REVERT JUMPDEST DUP1 PUSH1 0x2 PUSH1 0x0 PUSH2 0x100 EXP DUP2 SLOAD DUP2 PUSH20 0xFFFFFFFFFFFFFFFFFFFFFFFFFFFFFFFFFFFFFFFF MUL NOT AND SWAP1 DUP4 PUSH20 0xFFFFFFFFFFFFFFFFFFFFFFFFFFFFFFFFFFFFFFFF AND MUL OR SWAP1 SSTORE POP POP JUMP JUMPDEST PUSH1 0x1 PUSH1 0x8 SWAP1 SLOAD SWAP1 PUSH2 0x100 EXP SWAP1 DIV PUSH20 0xFFFFFFFFFFFFFFFFFFFFFFFFFFFFFFFFFFFFFFFF AND PUSH20 0xFFFFFFFFFFFFFFFFFFFFFFFFFFFFFFFFFFFFFFFF AND CALLER PUSH20 0xFFFFFFFFFFFFFFFFFFFFFFFFFFFFFFFFFFFFFFFF AND EQ PUSH2 0x427 JUMPI PUSH1 0x40 MLOAD PUSH32 0x8C379A000000000000000000000000000000000000000000000000000000000 DUP2 MSTORE PUSH1 0x4 ADD PUSH2 0x41E SWAP1 PUSH2 0x124C JUMP JUMPDEST PUSH1 0x40 MLOAD DUP1 SWAP2 SUB SWAP1 REVERT JUMPDEST PUSH1 0x0 PUSH1 0x1 PUSH1 0x8 SWAP1 SLOAD SWAP1 PUSH2 0x100 EXP SWAP1 DIV PUSH20 0xFFFFFFFFFFFFFFFFFFFFFFFFFFFFFFFFFFFFFFFF AND SWAP1 POP DUP2 PUSH1 0x1 PUSH1 0x8 PUSH2 0x100 EXP DUP2 SLOAD DUP2 PUSH20 0xFFFFFFFFFFFFFFFFFFFFFFFFFFFFFFFFFFFFFFFF MUL NOT AND SWAP1 DUP4 PUSH20 0xFFFFFFFFFFFFFFFFFFFFFFFFFFFFFFFFFFFFFFFF AND MUL OR SWAP1 SSTORE POP DUP2 PUSH20 0xFFFFFFFFFFFFFFFFFFFFFFFFFFFFFFFFFFFFFFFF AND DUP2 PUSH20 0xFFFFFFFFFFFFFFFFFFFFFFFFFFFFFFFFFFFFFFFF AND PUSH32 0x7E644D79422F17C01E4894B5F4F588D331EBFA28653D42AE832DC59E38C9798F PUSH1 0x40 MLOAD PUSH1 0x40 MLOAD DUP1 SWAP2 SUB SWAP1 LOG3 POP POP JUMP JUMPDEST DUP2 DUP2 SWAP1 POP DUP5 DUP5 SWAP1 POP EQ PUSH2 0x535 JUMPI PUSH1 0x40 MLOAD PUSH32 0x8C379A000000000000000000000000000000000000000000000000000000000 DUP2 MSTORE PUSH1 0x4 ADD PUSH2 0x52C SWAP1 PUSH2 0x12B8 JUMP JUMPDEST PUSH1 0x40 MLOAD DUP1 SWAP2 SUB SWAP1 REVERT JUMPDEST DUP2 DUP2 SWAP1 POP DUP7 DUP7 SWAP1 POP EQ PUSH2 0x57D JUMPI PUSH1 0x40 MLOAD PUSH32 0x8C379A000000000000000000000000000000000000000000000000000000000 DUP2 MSTORE PUSH1 0x4 ADD PUSH2 0x574 SWAP1 PUSH2 0x1324 JUMP JUMPDEST PUSH1 0x40 MLOAD DUP1 SWAP2 SUB SWAP1 REVERT JUMPDEST PUSH1 0x0 JUMPDEST DUP3 DUP3 SWAP1 POP DUP2 LT ISZERO PUSH2 0x604 JUMPI PUSH2 0x5F7 DUP9 DUP9 DUP9 DUP5 DUP2 DUP2 LT PUSH2 0x5A2 JUMPI PUSH2 0x5A1 PUSH2 0x1344 JUMP JUMPDEST JUMPDEST SWAP1 POP PUSH1 0x20 MUL DUP2 ADD SWAP1 PUSH2 0x5B4 SWAP2 SWAP1 PUSH2 0x1382 JUMP JUMPDEST DUP9 DUP9 DUP7 DUP2 DUP2 LT PUSH2 0x5C7 JUMPI PUSH2 0x5C6 PUSH2 0x1344 JUMP JUMPDEST JUMPDEST SWAP1 POP PUSH1 0x20 MUL DUP2 ADD SWAP1 PUSH2 0x5D9 SWAP2 SWAP1 PUSH2 0x1382 JUMP JUMPDEST DUP9 DUP9 DUP9 DUP2 DUP2 LT PUSH2 0x5EC JUMPI PUSH2 0x5EB PUSH2 0x1344 JUMP JUMPDEST JUMPDEST SWAP1 POP PUSH1 0xC0 MUL ADD PUSH2 0x7A6 JUMP JUMPDEST DUP1 DUP1 PUSH1 0x1 ADD SWAP2 POP POP PUSH2 0x580 JUMP JUMPDEST POP POP POP POP POP POP POP POP JUMP JUMPDEST PUSH2 0x616 PUSH2 0xAE7 JUMP JUMPDEST PUSH1 0x0 DUP1 DUP4 PUSH8 0xFFFFFFFFFFFFFFFF AND PUSH8 0xFFFFFFFFFFFFFFFF AND DUP2 MSTORE PUSH1 0x20 ADD SWAP1 DUP2 MSTORE PUSH1 0x20 ADD PUSH1 0x0 KECCAK256 PUSH1 0x40 MLOAD DUP1 PUSH1 0xC0 ADD PUSH1 0x40 MSTORE SWAP1 DUP2 PUSH1 0x0 DUP3 ADD PUSH1 0x0 SWAP1 SLOAD SWAP1 PUSH2 0x100 EXP SWAP1 DIV PUSH8 0xFFFFFFFFFFFFFFFF AND PUSH8 0xFFFFFFFFFFFFFFFF AND PUSH8 0xFFFFFFFFFFFFFFFF AND DUP2 MSTORE PUSH1 0x20 ADD PUSH1 0x1 DUP3 ADD SLOAD DUP2 MSTORE PUSH1 0x20 ADD PUSH1 0x2 DUP3 ADD SLOAD DUP2 MSTORE PUSH1 0x20 ADD PUSH1 0x3 DUP3 ADD PUSH1 0x0 SWAP1 SLOAD SWAP1 PUSH2 0x100 EXP SWAP1 DIV PUSH8 0xFFFFFFFFFFFFFFFF AND PUSH8 0xFFFFFFFFFFFFFFFF AND PUSH8 0xFFFFFFFFFFFFFFFF AND DUP2 MSTORE PUSH1 0x20 ADD PUSH1 0x3 DUP3 ADD PUSH1 0x8 SWAP1 SLOAD SWAP1 PUSH2 0x100 EXP SWAP1 DIV PUSH1 0x7 SIGNEXTEND PUSH1 0x7 SIGNEXTEND PUSH1 0x7 SIGNEXTEND DUP2 MSTORE PUSH1 0x20 ADD PUSH1 0x3 DUP3 ADD PUSH1 0x10 SWAP1 SLOAD SWAP1 PUSH2 0x100 EXP SWAP1 DIV PUSH4 0xFFFFFFFF AND PUSH4 0xFFFFFFFF AND PUSH4 0xFFFFFFFF AND DUP2 MSTORE POP POP SWAP1 POP SWAP2 SWAP1 POP JUMP JUMPDEST PUSH1 0x0 DUP1 PUSH1 0x0 DUP1 DUP8 PUSH8 0xFFFFFFFFFFFFFFFF AND PUSH8 0xFFFFFFFFFFFFFFFF AND DUP2 MSTORE PUSH1 0x20 ADD SWAP1 DUP2 MSTORE PUSH1 0x20 ADD PUSH1 0x0 KECCAK256 SWAP1 POP PUSH1 0x0 DUP2 PUSH1 0x0 ADD PUSH1 0x0 SWAP1 SLOAD SWAP1 PUSH2 0x100 EXP SWAP1 DIV PUSH8 0xFFFFFFFFFFFFFFFF AND PUSH8 0xFFFFFFFFFFFFFFFF AND SUB PUSH2 0x799 JUMPI PUSH1 0x40 MLOAD PUSH32 0x8C379A000000000000000000000000000000000000000000000000000000000 DUP2 MSTORE PUSH1 0x4 ADD PUSH2 0x790 SWAP1 PUSH2 0x1431 JUMP JUMPDEST PUSH1 0x40 MLOAD DUP1 SWAP2 SUB SWAP1 REVERT JUMPDEST PUSH1 0x1 SWAP2 POP POP SWAP5 SWAP4 POP POP POP POP JUMP JUMPDEST PUSH1 0x20 DUP2 PUSH1 0xA0 ADD PUSH1 0x20 DUP2 ADD SWAP1 PUSH2 0x7BB SWAP2 SWAP1 PUSH2 0x147D JUMP JUMPDEST PUSH4 0xFFFFFFFF AND LT ISZERO PUSH2 0x802 JUMPI PUSH1 0x40 MLOAD PUSH32 0x8C379A000000000000000000000000000000000000000000000000000000000 DUP2 MSTORE PUSH1 0x4 ADD PUSH2 0x7F9 SWAP1 PUSH2 0x14F6 JUMP JUMPDEST PUSH1 0x40 MLOAD DUP1 SWAP2 SUB SWAP1 REVERT JUMPDEST PUSH1 0x0 PUSH1 0x1 PUSH1 0x0 SWAP1 SLOAD SWAP1 PUSH2 0x100 EXP SWAP1 DIV PUSH8 0xFFFFFFFFFFFFFFFF AND PUSH8 0xFFFFFFFFFFFFFFFF AND GT ISZERO PUSH2 0x935 JUMPI PUSH1 0x0 DUP1 PUSH1 0x0 PUSH1 0x1 PUSH1 0x0 SWAP1 SLOAD SWAP1 PUSH2 0x100 EXP SWAP1 DIV PUSH8 0xFFFFFFFFFFFFFFFF AND PUSH8 0xFFFFFFFFFFFFFFFF AND PUSH8 0xFFFFFFFFFFFFFFFF AND DUP2 MSTORE PUSH1 0x20 ADD SWAP1 DUP2 MSTORE PUSH1 0x20 ADD PUSH1 0x0 KECCAK256 SWAP1 POP DUP1 PUSH1 0x1 ADD SLOAD DUP3 PUSH1 0x40 ADD CALLDATALOAD EQ PUSH2 0x8B5 JUMPI PUSH1 0x40 MLOAD PUSH32 0x8C379A000000000000000000000000000000000000000000000000000000000 DUP2 MSTORE PUSH1 0x4 ADD PUSH2 0x8AC SWAP1 PUSH2 0x1562 JUMP JUMPDEST PUSH1 0x40 MLOAD DUP1 SWAP2 SUB SWAP1 REVERT JUMPDEST PUSH1 0x1 PUSH1 0x0 SWAP1 SLOAD SWAP1 PUSH2 0x100 EXP SWAP1 DIV PUSH8 0xFFFFFFFFFFFFFFFF AND PUSH8 0xFFFFFFFFFFFFFFFF AND DUP3 PUSH1 0x0 ADD PUSH1 0x20 DUP2 ADD SWAP1 PUSH2 0x8E9 SWAP2 SWAP1 PUSH2 0xB8A JUMP JUMPDEST PUSH8 0xFFFFFFFFFFFFFFFF AND GT PUSH2 0x933 JUMPI PUSH1 0x40 MLOAD PUSH32 0x8C379A000000000000000000000000000000000000000000000000000000000 DUP2 MSTORE PUSH1 0x4 ADD PUSH2 0x92A SWAP1 PUSH2 0x15F4 JUMP JUMPDEST PUSH1 0x40 MLOAD DUP1 SWAP2 SUB SWAP1 REVERT JUMPDEST POP JUMPDEST PUSH1 0x2 PUSH1 0x0 SWAP1 SLOAD SWAP1 PUSH2 0x100 EXP SWAP1 DIV PUSH20 0xFFFFFFFFFFFFFFFFFFFFFFFFFFFFFFFFFFFFFFFF AND PUSH20 0xFFFFFFFFFFFFFFFFFFFFFFFFFFFFFFFFFFFFFFFF AND PUSH4 0x41493C60 DUP8 DUP8 DUP8 DUP8 DUP8 PUSH1 0x40 MLOAD DUP7 PUSH4 0xFFFFFFFF AND PUSH1 0xE0 SHL DUP2 MSTORE PUSH1 0x4 ADD PUSH2 0x998 SWAP6 SWAP5 SWAP4 SWAP3 SWAP2 SWAP1 PUSH2 0x1672 JUMP JUMPDEST PUSH1 0x0 PUSH1 0x40 MLOAD DUP1 DUP4 SUB DUP2 PUSH1 0x0 DUP8 DUP1 EXTCODESIZE ISZERO DUP1 ISZERO PUSH2 0x9B2 JUMPI PUSH1 0x0 DUP1 REVERT JUMPDEST POP GAS CALL ISZERO DUP1 ISZERO PUSH2 0x9C6 JUMPI RETURNDATASIZE PUSH1 0x0 DUP1 RETURNDATACOPY RETURNDATASIZE PUSH1 0x0 REVERT JUMPDEST POP POP POP POP DUP1 PUSH1 0x0 DUP1 DUP4 PUSH1 0x0 ADD PUSH1 0x20 DUP2 ADD SWAP1 PUSH2 0x9E1 SWAP2 SWAP1 PUSH2 0xB8A JUMP JUMPDEST PUSH8 0xFFFFFFFFFFFFFFFF AND PUSH8 0xFFFFFFFFFFFFFFFF AND DUP2 MSTORE PUSH1 0x20 ADD SWAP1 DUP2 MSTORE PUSH1 0x20 ADD PUSH1 0x0 KECCAK256 DUP2 DUP2 PUSH2 0xA0F SWAP2 SWAP1 PUSH2 0x1A3A JUMP JUMPDEST SWAP1 POP POP DUP1 PUSH1 0x0 ADD PUSH1 0x20 DUP2 ADD SWAP1 PUSH2 0xA25 SWAP2 SWAP1 PUSH2 0xB8A JUMP JUMPDEST PUSH1 0x1 PUSH1 0x0 PUSH2 0x100 EXP DUP2 SLOAD DUP2 PUSH8 0xFFFFFFFFFFFFFFFF MUL NOT AND SWAP1 DUP4 PUSH8 0xFFFFFFFFFFFFFFFF AND MUL OR SWAP1 SSTORE POP DUP1 PUSH1 0x0 ADD PUSH1 0x20 DUP2 ADD SWAP1 PUSH2 0xA60 SWAP2 SWAP1 PUSH2 0xB8A JUMP JUMPDEST PUSH8 0xFFFFFFFFFFFFFFFF AND PUSH32 0x3FF4EF94D518AB5E8927510135895F940AF63AC4678DD8D4509B5BD93E7F98C DUP3 PUSH1 0x20 ADD CALLDATALOAD DUP4 PUSH1 0x60 ADD PUSH1 0x20 DUP2 ADD SWAP1 PUSH2 0xAA3 SWAP2 SWAP1 PUSH2 0xB8A JUMP JUMPDEST PUSH1 0x40 MLOAD PUSH2 0xAB1 SWAP3 SWAP2 SWAP1 PUSH2 0x1A48 JUMP JUMPDEST PUSH1 0x40 MLOAD DUP1 SWAP2 SUB SWAP1 LOG2 POP POP POP POP POP POP JUMP JUMPDEST PUSH1 0x1 PUSH1 0x8 SWAP1 SLOAD SWAP1 PUSH2 0x100 EXP SWAP1 DIV PUSH20 0xFFFFFFFFFFFFFFFFFFFFFFFFFFFFFFFFFFFFFFFF AND DUP2 JUMP JUMPDEST PUSH1 0x40 MLOAD DUP1 PUSH1 0xC0 ADD PUSH1 0x40 MSTORE DUP1 PUSH1 0x0 PUSH8 0xFFFFFFFFFFFFFFFF AND DUP2 MSTORE PUSH1 0x20 ADD PUSH1 0x0 DUP1 NOT AND DUP2 MSTORE PUSH1 0x20 ADD PUSH1 0x0 DUP1 NOT AND DUP2 MSTORE PUSH1 0x20 ADD PUSH1 0x0 PUSH8 0xFFFFFFFFFFFFFFFF AND DUP2 MSTORE PUSH1 0x20 ADD PUSH1 0x0 PUSH1 0x7 SIGNEXTEND DUP2 MSTORE PUSH1 0x20 ADD PUSH1 0x0 PUSH4 0xFFFFFFFF AND DUP2 MSTORE POP SWAP1 JUMP JUMPDEST PUSH1 0x0 DUP1 REVERT JUMPDEST PUSH1 0x0 DUP1 REVERT JUMPDEST PUSH1 0x0 PUSH8 0xFFFFFFFFFFFFFFFF DUP3 AND SWAP1 POP SWAP2 SWAP1 POP JUMP JUMPDEST PUSH2 0xB67 DUP2 PUSH2 0xB4A JUMP JUMPDEST DUP2 EQ PUSH2 0xB72 JUMPI PUSH1 0x0 DUP1 REVERT JUMPDEST POP JUMP JUMPDEST PUSH1 0x0 DUP2 CALLDATALOAD SWAP1 POP PUSH2 0xB84 DUP2 PUSH2 0xB5E JUMP JUMPDEST SWAP3 SWAP2 POP POP JUMP JUMPDEST PUSH1 0x0 PUSH1 0x20 DUP3 DUP5 SUB SLT ISZERO PUSH2 0xBA0 JUMPI PUSH2 0xB9F PUSH2 0xB40 JUMP JUMPDEST JUMPDEST PUSH1 0x0 PUSH2 0xBAE DUP5 DUP3 DUP6 ADD PUSH2 0xB75 JUMP JUMPDEST SWAP2 POP POP SWAP3 SWAP2 POP POP JUMP JUMPDEST PUSH2 0xBC0 DUP2 PUSH2 0xB4A JUMP JUMPDEST DUP3 MSTORE POP POP JUMP JUMPDEST PUSH1 0x0 DUP2 SWAP1 POP SWAP2 SWAP1 POP JUMP JUMPDEST PUSH2 0xBD9 DUP2 PUSH2 0xBC6 JUMP JUMPDEST DUP3 MSTORE POP POP JUMP JUMPDEST PUSH1 0x0 DUP2 PUSH1 0x7 SIGNEXTEND SWAP1 POP SWAP2 SWAP1 POP JUMP JUMPDEST PUSH2 0xBF5 DUP2 PUSH2 0xBDF JUMP JUMPDEST DUP3 MSTORE POP POP JUMP JUMPDEST PUSH1 0x0 PUSH4 0xFFFFFFFF DUP3 AND SWAP1 POP SWAP2 SWAP1 POP JUMP JUMPDEST PUSH2 0xC14 DUP2 PUSH2 0xBFB JUMP JUMPDEST DUP3 MSTORE POP POP JUMP JUMPDEST PUSH1 0x0 PUSH1 0xC0 DUP3 ADD SWAP1 POP PUSH2 0xC2F PUSH1 0x0 DUP4 ADD DUP10 PUSH2 0xBB7 JUMP JUMPDEST PUSH2 0xC3C PUSH1 0x20 DUP4 ADD DUP9 PUSH2 0xBD0 JUMP JUMPDEST PUSH2 0xC49 PUSH1 0x40 DUP4 ADD DUP8 PUSH2 0xBD0 JUMP JUMPDEST PUSH2 0xC56 PUSH1 0x60 DUP4 ADD DUP7 PUSH2 0xBB7 JUMP JUMPDEST PUSH2 0xC63 PUSH1 0x80 DUP4 ADD DUP6 PUSH2 0xBEC JUMP JUMPDEST PUSH2 0xC70 PUSH1 0xA0 DUP4 ADD DUP5 PUSH2 0xC0B JUMP JUMPDEST SWAP8 SWAP7 POP POP POP POP POP POP POP JUMP JUMPDEST PUSH1 0x0 PUSH1 0x20 DUP3 ADD SWAP1 POP PUSH2 0xC90 PUSH1 0x0 DUP4 ADD DUP5 PUSH2 0xBB7 JUMP JUMPDEST SWAP3 SWAP2 POP POP JUMP JUMPDEST PUSH1 0x0 PUSH20 0xFFFFFFFFFFFFFFFFFFFFFFFFFFFFFFFFFFFFFFFF DUP3 AND SWAP1 POP SWAP2 SWAP1 POP JUMP JUMPDEST PUSH1 0x0 PUSH2 0xCC1 DUP3 PUSH2 0xC96 JUMP JUMPDEST SWAP1 POP SWAP2 SWAP1 POP JUMP JUMPDEST PUSH2 0xCD1 DUP2 PUSH2 0xCB6 JUMP JUMPDEST DUP3 MSTORE POP POP JUMP JUMPDEST PUSH1 0x0 PUSH1 0x20 DUP3 ADD SWAP1 POP PUSH2 0xCEC PUSH1 0x0 DUP4 ADD DUP5 PUSH2 0xCC8 JUMP JUMPDEST SWAP3 SWAP2 POP POP JUMP JUMPDEST PUSH2 0xCFB DUP2 PUSH2 0xCB6 JUMP JUMPDEST DUP2 EQ PUSH2 0xD06 JUMPI PUSH1 0x0 DUP1 REVERT JUMPDEST POP JUMP JUMPDEST PUSH1 0x0 DUP2 CALLDATALOAD SWAP1 POP PUSH2 0xD18 DUP2 PUSH2 0xCF2 JUMP JUMPDEST SWAP3 SWAP2 POP POP JUMP JUMPDEST PUSH1 0x0 PUSH1 0x20 DUP3 DUP5 SUB SLT ISZERO PUSH2 0xD34 JUMPI PUSH2 0xD33 PUSH2 0xB40 JUMP JUMPDEST JUMPDEST PUSH1 0x0 PUSH2 0xD42 DUP5 DUP3 DUP6 ADD PUSH2 0xD09 JUMP JUMPDEST SWAP2 POP POP SWAP3 SWAP2 POP POP JUMP JUMPDEST PUSH2 0xD54 DUP2 PUSH2 0xBC6 JUMP JUMPDEST DUP2 EQ PUSH2 0xD5F JUMPI PUSH1 0x0 DUP1 REVERT JUMPDEST POP JUMP JUMPDEST PUSH1 0x0 DUP2 CALLDATALOAD SWAP1 POP PUSH2 0xD71 DUP2 PUSH2 0xD4B JUMP JUMPDEST SWAP3 SWAP2 POP POP JUMP JUMPDEST PUSH1 0x0 DUP1 REVERT JUMPDEST PUSH1 0x0 DUP1 REVERT JUMPDEST PUSH1 0x0 DUP1 REVERT JUMPDEST PUSH1 0x0 DUP1 DUP4 PUSH1 0x1F DUP5 ADD SLT PUSH2 0xD9C JUMPI PUSH2 0xD9B PUSH2 0xD77 JUMP JUMPDEST JUMPDEST DUP3 CALLDATALOAD SWAP1 POP PUSH8 0xFFFFFFFFFFFFFFFF DUP2 GT ISZERO PUSH2 0xDB9 JUMPI PUSH2 0xDB8 PUSH2 0xD7C JUMP JUMPDEST JUMPDEST PUSH1 0x20 DUP4 ADD SWAP2 POP DUP4 PUSH1 0x20 DUP3 MUL DUP4 ADD GT ISZERO PUSH2 0xDD5 JUMPI PUSH2 0xDD4 PUSH2 0xD81 JUMP JUMPDEST JUMPDEST SWAP3 POP SWAP3 SWAP1 POP JUMP JUMPDEST PUSH1 0x0 DUP1 DUP4 PUSH1 0x1F DUP5 ADD SLT PUSH2 0xDF2 JUMPI PUSH2 0xDF1 PUSH2 0xD77 JUMP JUMPDEST JUMPDEST DUP3 CALLDATALOAD SWAP1 POP PUSH8 0xFFFFFFFFFFFFFFFF DUP2 GT ISZERO PUSH2 0xE0F JUMPI PUSH2 0xE0E PUSH2 0xD7C JUMP JUMPDEST JUMPDEST PUSH1 0x20 DUP4 ADD SWAP2 POP DUP4 PUSH1 0xC0 DUP3 MUL DUP4 ADD GT ISZERO PUSH2 0xE2B JUMPI PUSH2 0xE2A PUSH2 0xD81 JUMP JUMPDEST JUMPDEST SWAP3 POP SWAP3 SWAP1 POP JUMP JUMPDEST PUSH1 0x0 DUP1 PUSH1 0x0 DUP1 PUSH1 0x0 DUP1 PUSH1 0x0 PUSH1 0x80 DUP9 DUP11 SUB SLT ISZERO PUSH2 0xE51 JUMPI PUSH2 0xE50 PUSH2 0xB40 JUMP JUMPDEST JUMPDEST PUSH1 0x0 PUSH2 0xE5F DUP11 DUP3 DUP12 ADD PUSH2 0xD62 JUMP JUMPDEST SWAP8 POP POP PUSH1 0x20 DUP9 ADD CALLDATALOAD PUSH8 0xFFFFFFFFFFFFFFFF DUP2 GT ISZERO PUSH2 0xE80 JUMPI PUSH2 0xE7F PUSH2 0xB45 JUMP JUMPDEST JUMPDEST PUSH2 0xE8C DUP11 DUP3 DUP12 ADD PUSH2 0xD86 JUMP JUMPDEST SWAP7 POP SWAP7 POP POP PUSH1 0x40 DUP9 ADD CALLDATALOAD PUSH8 0xFFFFFFFFFFFFFFFF DUP2 GT ISZERO PUSH2 0xEAF JUMPI PUSH2 0xEAE PUSH2 0xB45 JUMP JUMPDEST JUMPDEST PUSH2 0xEBB DUP11 DUP3 DUP12 ADD PUSH2 0xD86 JUMP JUMPDEST SWAP5 POP SWAP5 POP POP PUSH1 0x60 DUP9 ADD CALLDATALOAD PUSH8 0xFFFFFFFFFFFFFFFF DUP2 GT ISZERO PUSH2 0xEDE JUMPI PUSH2 0xEDD PUSH2 0xB45 JUMP JUMPDEST JUMPDEST PUSH2 0xEEA DUP11 DUP3 DUP12 ADD PUSH2 0xDDC JUMP JUMPDEST SWAP3 POP SWAP3 POP POP SWAP3 SWAP6 SWAP9 SWAP2 SWAP5 SWAP8 POP SWAP3 SWAP6 POP JUMP JUMPDEST PUSH2 0xF04 DUP2 PUSH2 0xB4A JUMP JUMPDEST DUP3 MSTORE POP POP JUMP JUMPDEST PUSH2 0xF13 DUP2 PUSH2 0xBC6 JUMP JUMPDEST DUP3 MSTORE POP POP JUMP JUMPDEST PUSH2 0xF22 DUP2 PUSH2 0xBDF JUMP JUMPDEST DUP3 MSTORE POP POP JUMP JUMPDEST PUSH2 0xF31 DUP2 PUSH2 0xBFB JUMP JUMPDEST DUP3 MSTORE POP POP JUMP JUMPDEST PUSH1 0xC0 DUP3 ADD PUSH1 0x0 DUP3 ADD MLOAD PUSH2 0xF4D PUSH1 0x0 DUP6 ADD DUP3 PUSH2 0xEFB JUMP JUMPDEST POP PUSH1 0x20 DUP3 ADD MLOAD PUSH2 0xF60 PUSH1 0x20 DUP6 ADD DUP3 PUSH2 0xF0A JUMP JUMPDEST POP PUSH1 0x40 DUP3 ADD MLOAD PUSH2 0xF73 PUSH1 0x40 DUP6 ADD DUP3 PUSH2 0xF0A JUMP JUMPDEST POP PUSH1 0x60 DUP3 ADD MLOAD PUSH2 0xF86 PUSH1 0x60 DUP6 ADD DUP3 PUSH2 0xEFB JUMP JUMPDEST POP PUSH1 0x80 DUP3 ADD MLOAD PUSH2 0xF99 PUSH1 0x80 DUP6 ADD DUP3 PUSH2 0xF19 JUMP JUMPDEST POP PUSH1 0xA0 DUP3 ADD MLOAD PUSH2 0xFAC PUSH1 0xA0 DUP6 ADD DUP3 PUSH2 0xF28 JUMP JUMPDEST POP POP POP POP JUMP JUMPDEST PUSH1 0x0 PUSH1 0xC0 DUP3 ADD SWAP1 POP PUSH2 0xFC7 PUSH1 0x0 DUP4 ADD DUP5 PUSH2 0xF37 JUMP JUMPDEST SWAP3 SWAP2 POP POP JUMP JUMPDEST PUSH1 0x0 DUP1 DUP4 PUSH1 0x1F DUP5 ADD SLT PUSH2 0xFE3 JUMPI PUSH2 0xFE2 PUSH2 0xD77 JUMP JUMPDEST JUMPDEST DUP3 CALLDATALOAD SWAP1 POP PUSH8 0xFFFFFFFFFFFFFFFF DUP2 GT ISZERO PUSH2 0x1000 JUMPI PUSH2 0xFFF PUSH2 0xD7C JUMP JUMPDEST JUMPDEST PUSH1 0x20 DUP4 ADD SWAP2 POP DUP4 PUSH1 0x20 DUP3 MUL DUP4 ADD GT ISZERO PUSH2 0x101C JUMPI PUSH2 0x101B PUSH2 0xD81 JUMP JUMPDEST JUMPDEST SWAP3 POP SWAP3 SWAP1 POP JUMP JUMPDEST PUSH1 0x0 DUP1 PUSH1 0x0 DUP1 PUSH1 0x60 DUP6 DUP8 SUB SLT ISZERO PUSH2 0x103D JUMPI PUSH2 0x103C PUSH2 0xB40 JUMP JUMPDEST JUMPDEST PUSH1 0x0 PUSH2 0x104B DUP8 DUP3 DUP9 ADD PUSH2 0xB75 JUMP JUMPDEST SWAP5 POP POP PUSH1 0x20 PUSH2 0x105C DUP8 DUP3 DUP9 ADD PUSH2 0xD62 JUMP JUMPDEST SWAP4 POP POP PUSH1 0x40 DUP6 ADD CALLDATALOAD PUSH8 0xFFFFFFFFFFFFFFFF DUP2 GT ISZERO PUSH2 0x107D JUMPI PUSH2 0x107C PUSH2 0xB45 JUMP JUMPDEST JUMPDEST PUSH2 0x1089 DUP8 DUP3 DUP9 ADD PUSH2 0xFCD JUMP JUMPDEST SWAP3 POP SWAP3 POP POP SWAP3 SWAP6 SWAP2 SWAP5 POP SWAP3 POP JUMP JUMPDEST PUSH1 0x0 DUP2 ISZERO ISZERO SWAP1 POP SWAP2 SWAP1 POP JUMP JUMPDEST PUSH2 0x10AC DUP2 PUSH2 0x1097 JUMP JUMPDEST DUP3 MSTORE POP POP JUMP JUMPDEST PUSH1 0x0 PUSH1 0x20 DUP3 ADD SWAP1 POP PUSH2 0x10C7 PUSH1 0x0 DUP4 ADD DUP5 PUSH2 0x10A3 JUMP JUMPDEST SWAP3 SWAP2 POP POP JUMP JUMPDEST PUSH1 0x0 DUP1 DUP4 PUSH1 0x1F DUP5 ADD SLT PUSH2 0x10E3 JUMPI PUSH2 0x10E2 PUSH2 0xD77 JUMP JUMPDEST JUMPDEST DUP3 CALLDATALOAD SWAP1 POP PUSH8 0xFFFFFFFFFFFFFFFF DUP2 GT ISZERO PUSH2 0x1100 JUMPI PUSH2 0x10FF PUSH2 0xD7C JUMP JUMPDEST JUMPDEST PUSH1 0x20 DUP4 ADD SWAP2 POP DUP4 PUSH1 0x1 DUP3 MUL DUP4 ADD GT ISZERO PUSH2 0x111C JUMPI PUSH2 0x111B PUSH2 0xD81 JUMP JUMPDEST JUMPDEST SWAP3 POP SWAP3 SWAP1 POP JUMP JUMPDEST PUSH1 0x0 DUP1 REVERT JUMPDEST PUSH1 0x0 PUSH1 0xC0 DUP3 DUP5 SUB SLT ISZERO PUSH2 0x113E JUMPI PUSH2 0x113D PUSH2 0x1123 JUMP JUMPDEST JUMPDEST DUP2 SWAP1 POP SWAP3 SWAP2 POP POP JUMP JUMPDEST PUSH1 0x0 DUP1 PUSH1 0x0 DUP1 PUSH1 0x0 DUP1 PUSH2 0x120 DUP8 DUP10 SUB SLT ISZERO PUSH2 0x1165 JUMPI PUSH2 0x1164 PUSH2 0xB40 JUMP JUMPDEST JUMPDEST PUSH1 0x0 PUSH2 0x1173 DUP10 DUP3 DUP11 ADD PUSH2 0xD62 JUMP JUMPDEST SWAP7 POP POP PUSH1 0x20 DUP8 ADD CALLDATALOAD PUSH8 0xFFFFFFFFFFFFFFFF DUP2 GT ISZERO PUSH2 0x1194 JUMPI PUSH2 0x1193 PUSH2 0xB45 JUMP JUMPDEST JUMPDEST PUSH2 0x11A0 DUP10 DUP3 DUP11 ADD PUSH2 0x10CD JUMP JUMPDEST SWAP6 POP SWAP6 POP POP PUSH1 0x40 DUP8 ADD CALLDATALOAD PUSH8 0xFFFFFFFFFFFFFFFF DUP2 GT ISZERO PUSH2 0x11C3 JUMPI PUSH2 0x11C2 PUSH2 0xB45 JUMP JUMPDEST JUMPDEST PUSH2 0x11CF DUP10 DUP3 DUP11 ADD PUSH2 0x10CD JUMP JUMPDEST SWAP4 POP SWAP4 POP POP PUSH1 0x60 PUSH2 0x11E2 DUP10 DUP3 DUP11 ADD PUSH2 0x1128 JUMP JUMPDEST SWAP2 POP POP SWAP3 SWAP6 POP SWAP3 SWAP6 POP SWAP3 SWAP6 JUMP JUMPDEST PUSH1 0x0 DUP3 DUP3 MSTORE PUSH1 0x20 DUP3 ADD SWAP1 POP SWAP3 SWAP2 POP POP JUMP JUMPDEST PUSH32 0x4F6E6C792061646D696E00000000000000000000000000000000000000000000 PUSH1 0x0 DUP3 ADD MSTORE POP JUMP JUMPDEST PUSH1 0x0 PUSH2 0x1236 PUSH1 0xA DUP4 PUSH2 0x11EF JUMP JUMPDEST SWAP2 POP PUSH2 0x1241 DUP3 PUSH2 0x1200 JUMP JUMPDEST PUSH1 0x20 DUP3 ADD SWAP1 POP SWAP2 SWAP1 POP JUMP JUMPDEST PUSH1 0x0 PUSH1 0x20 DUP3 ADD SWAP1 POP DUP2 DUP2 SUB PUSH1 0x0 DUP4 ADD MSTORE PUSH2 0x1265 DUP2 PUSH2 0x1229 JUMP JUMPDEST SWAP1 POP SWAP2 SWAP1 POP JUMP JUMPDEST PUSH32 0x4C656E677468206D69736D617463680000000000000000000000000000000000 PUSH1 0x0 DUP3 ADD MSTORE POP JUMP JUMPDEST PUSH1 0x0 PUSH2 0x12A2 PUSH1 0xF DUP4 PUSH2 0x11EF JUMP JUMPDEST SWAP2 POP PUSH2 0x12AD DUP3 PUSH2 0x126C JUMP JUMPDEST PUSH1 0x20 DUP3 ADD SWAP1 POP SWAP2 SWAP1 POP JUMP JUMPDEST PUSH1 0x0 PUSH1 0x20 DUP3 ADD SWAP1 POP DUP2 DUP2 SUB PUSH1 0x0 DUP4 ADD MSTORE PUSH2 0x12D1 DUP2 PUSH2 0x1295 JUMP JUMPDEST SWAP1 POP SWAP2 SWAP1 POP JUMP JUMPDEST PUSH32 0x5075626C69632076616C756573206C656E677468206D69736D61746368000000 PUSH1 0x0 DUP3 ADD MSTORE POP JUMP JUMPDEST PUSH1 0x0 PUSH2 0x130E PUSH1 0x1D DUP4 PUSH2 0x11EF JUMP JUMPDEST SWAP2 POP PUSH2 0x1319 DUP3 PUSH2 0x12D8 JUMP JUMPDEST PUSH1 0x20 DUP3 ADD SWAP1 POP SWAP2 SWAP1 POP JUMP JUMPDEST PUSH1 0x0 PUSH1 0x20 DUP3 ADD SWAP1 POP DUP2 DUP2 SUB PUSH1 0x0 DUP4 ADD MSTORE PUSH2 0x133D DUP2 PUSH2 0x1301 JUMP JUMPDEST SWAP1 POP SWAP2 SWAP1 POP JUMP JUMPDEST PUSH32 0x4E487B7100000000000000000000000000000000000000000000000000000000 PUSH1 0x0 MSTORE PUSH1 0x32 PUSH1 0x4 MSTORE PUSH1 0x24 PUSH1 0x0 REVERT JUMPDEST PUSH1 0x0 DUP1 REVERT JUMPDEST PUSH1 0x0 DUP1 REVERT JUMPDEST PUSH1 0x0 DUP1 REVERT JUMPDEST PUSH1 0x0 DUP1 DUP4 CALLDATALOAD PUSH1 0x1 PUSH1 0x20 SUB DUP5 CALLDATASIZE SUB SUB DUP2 SLT PUSH2 0x139F JUMPI PUSH2 0x139E PUSH2 0x1373 JUMP JUMPDEST JUMPDEST DUP1 DUP5 ADD SWAP3 POP DUP3 CALLDATALOAD SWAP2 POP PUSH8 0xFFFFFFFFFFFFFFFF DUP3 GT ISZERO PUSH2 0x13C1 JUMPI PUSH2 0x13C0 PUSH2 0x1378 JUMP JUMPDEST JUMPDEST PUSH1 0x20 DUP4 ADD SWAP3 POP PUSH1 0x1 DUP3 MUL CALLDATASIZE SUB DUP4 SGT ISZERO PUSH2 0x13DD JUMPI PUSH2 0x13DC PUSH2 0x137D JUMP JUMPDEST JUMPDEST POP SWAP3 POP SWAP3 SWAP1 POP JUMP JUMPDEST PUSH32 0x426C6F636B206E6F7420666F756E640000000000000000000000000000000000 PUSH1 0x0 DUP3 ADD MSTORE POP JUMP JUMPDEST PUSH1 0x0 PUSH2 0x141B PUSH1 0xF DUP4 PUSH2 0x11EF JUMP JUMPDEST SWAP2 POP PUSH2 0x1426 DUP3 PUSH2 0x13E5 JUMP JUMPDEST PUSH1 0x20 DUP3 ADD SWAP1 POP SWAP2 SWAP1 POP JUMP JUMPDEST PUSH1 0x0 PUSH1 0x20 DUP3 ADD SWAP1 POP DUP2 DUP2 SUB PUSH1 0x0 DUP4 ADD MSTORE PUSH2 0x144A DUP2 PUSH2 0x140E JUMP JUMPDEST SWAP1 POP SWAP2 SWAP1 POP JUMP JUMPDEST PUSH2 0x145A DUP2 PUSH2 0xBFB JUMP JUMPDEST DUP2 EQ PUSH2 0x1465 JUMPI PUSH1 0x0 DUP1 REVERT JUMPDEST POP JUMP JUMPDEST PUSH1 0x0 DUP2 CALLDATALOAD SWAP1 POP PUSH2 0x1477 DUP2 PUSH2 0x1451 JUMP JUMPDEST SWAP3 SWAP2 POP POP JUMP JUMPDEST PUSH1 0x0 PUSH1 0x20 DUP3 DUP5 SUB SLT ISZERO PUSH2 0x1493 JUMPI PUSH2 0x1492 PUSH2 0xB40 JUMP JUMPDEST JUMPDEST PUSH1 0x0 PUSH2 0x14A1 DUP5 DUP3 DUP6 ADD PUSH2 0x1468 JUMP JUMPDEST SWAP2 POP POP SWAP3 SWAP2 POP POP JUMP JUMPDEST PUSH32 0x496E73756666696369656E7420636F6E6669726D6174696F6E73000000000000 PUSH1 0x0 DUP3 ADD MSTORE POP JUMP JUMPDEST PUSH1 0x0 PUSH2 0x14E0 PUSH1 0x1A DUP4 PUSH2 0x11EF JUMP JUMPDEST SWAP2 POP PUSH2 0x14EB DUP3 PUSH2 0x14AA JUMP JUMPDEST PUSH1 0x20 DUP3 ADD SWAP1 POP SWAP2 SWAP1 POP JUMP JUMPDEST PUSH1 0x0 PUSH1 0x20 DUP3 ADD SWAP1 POP DUP2 DUP2 SUB PUSH1 0x0 DUP4 ADD MSTORE PUSH2 0x150F DUP2 PUSH2 0x14D3 JUMP JUMPDEST SWAP1 POP SWAP2 SWAP1 POP JUMP JUMPDEST PUSH32 0x506172656E742068617368206D69736D61746368000000000000000000000000 PUSH1 0x0 DUP3 ADD MSTORE POP JUMP JUMPDEST PUSH1 0x0 PUSH2 0x154C PUSH1 0x14 DUP4 PUSH2 0x11EF JUMP JUMPDEST SWAP2 POP PUSH2 0x1557 DUP3 PUSH2 0x1516 JUMP JUMPDEST PUSH1 0x20 DUP3 ADD SWAP1 POP SWAP2 SWAP1 POP JUMP JUMPDEST PUSH1 0x0 PUSH1 0x20 DUP3 ADD SWAP1 POP DUP2 DUP2 SUB PUSH1 0x0 DUP4 ADD MSTORE PUSH2 0x157B DUP2 PUSH2 0x153F JUMP JUMPDEST SWAP1 POP SWAP2 SWAP1 POP JUMP JUMPDEST PUSH32 0x536C6F74206D7573742062652067726561746572207468616E2063757272656E PUSH1 0x0 DUP3 ADD MSTORE PUSH32 0x7400000000000000000000000000000000000000000000000000000000000000 PUSH1 0x20 DUP3 ADD MSTORE POP JUMP JUMPDEST PUSH1 0x0 PUSH2 0x15DE PUSH1 0x21 DUP4 PUSH2 0x11EF JUMP JUMPDEST SWAP2 POP PUSH2 0x15E9 DUP3 PUSH2 0x1582 JUMP JUMPDEST PUSH1 0x40 DUP3 ADD SWAP1 POP SWAP2 SWAP1 POP JUMP JUMPDEST PUSH1 0x0 PUSH1 0x20 DUP3 ADD SWAP1 POP DUP2 DUP2 SUB PUSH1 0x0 DUP4 ADD MSTORE PUSH2 0x160D DUP2 PUSH2 0x15D1 JUMP JUMPDEST SWAP1 POP SWAP2 SWAP1 POP JUMP JUMPDEST PUSH1 0x0 DUP3 DUP3 MSTORE PUSH1 0x20 DUP3 ADD SWAP1 POP SWAP3 SWAP2 POP POP JUMP JUMPDEST DUP3 DUP2 DUP4 CALLDATACOPY PUSH1 0x0 DUP4 DUP4 ADD MSTORE POP POP POP JUMP JUMPDEST PUSH1 0x0 PUSH1 0x1F NOT PUSH1 0x1F DUP4 ADD AND SWAP1 POP SWAP2 SWAP1 POP JUMP JUMPDEST PUSH1 0x0 PUSH2 0x1651 DUP4 DUP6 PUSH2 0x1614 JUMP JUMPDEST SWAP4 POP PUSH2 0x165E DUP4 DUP6 DUP5 PUSH2 0x1625 JUMP JUMPDEST PUSH2 0x1667 DUP4 PUSH2 0x1634 JUMP JUMPDEST DUP5 ADD SWAP1 POP SWAP4 SWAP3 POP POP POP JUMP JUMPDEST PUSH1 0x0 PUSH1 0x60 DUP3 ADD SWAP1 POP PUSH2 0x1687 PUSH1 0x0 DUP4 ADD DUP9 PUSH2 0xBD0 JUMP JUMPDEST DUP2 DUP2 SUB PUSH1 0x20 DUP4 ADD MSTORE PUSH2 0x169A DUP2 DUP7 DUP9 PUSH2 0x1645 JUMP JUMPDEST SWAP1 POP DUP2 DUP2 SUB PUSH1 0x40 DUP4 ADD MSTORE PUSH2 0x16AF DUP2 DUP5 DUP7 PUSH2 0x1645 JUMP JUMPDEST SWAP1 POP SWAP7 SWAP6 POP POP POP POP POP POP JUMP JUMPDEST PUSH1 0x0 DUP2 CALLDATALOAD PUSH2 0x16C8 DUP2 PUSH2 0xB5E JUMP JUMPDEST DUP1 SWAP2 POP POP SWAP2 SWAP1 POP JUMP JUMPDEST PUSH1 0x0 DUP2 PUSH1 0x0 SHL SWAP1 POP SWAP2 SWAP1 POP JUMP JUMPDEST PUSH1 0x0 PUSH8 0xFFFFFFFFFFFFFFFF PUSH2 0x16F2 DUP5 PUSH2 0x16D1 JUMP JUMPDEST SWAP4 POP DUP1 NOT DUP4 AND SWAP3 POP DUP1 DUP5 AND DUP4 OR SWAP2 POP POP SWAP3 SWAP2 POP POP JUMP JUMPDEST PUSH1 0x0 DUP2 SWAP1 POP SWAP2 SWAP1 POP JUMP JUMPDEST PUSH1 0x0 PUSH2 0x172D PUSH2 0x1728 PUSH2 0x1723 DUP5 PUSH2 0xB4A JUMP JUMPDEST PUSH2 0x1708 JUMP JUMPDEST PUSH2 0xB4A JUMP JUMPDEST SWAP1 POP SWAP2 SWAP1 POP JUMP JUMPDEST PUSH1 0x0 DUP2 SWAP1 POP SWAP2 SWAP1 POP JUMP JUMPDEST PUSH2 0x1747 DUP3 PUSH2 0x1712 JUMP JUMPDEST PUSH2 0x175A PUSH2 0x1753 DUP3 PUSH2 0x1734 JUMP JUMPDEST DUP4 SLOAD PUSH2 0x16DE JUMP JUMPDEST DUP3 SSTORE POP POP POP JUMP JUMPDEST PUSH1 0x0 DUP2 CALLDATALOAD PUSH2 0x176E DUP2 PUSH2 0xD4B JUMP JUMPDEST DUP1 SWAP2 POP POP SWAP2 SWAP1 POP JUMP JUMPDEST PUSH1 0x0 PUSH32 0xFFFFFFFFFFFFFFFFFFFFFFFFFFFFFFFFFFFFFFFFFFFFFFFFFFFFFFFFFFFFFFFF PUSH2 0x17A3 DUP5 PUSH2 0x16D1 JUMP JUMPDEST SWAP4 POP DUP1 NOT DUP4 AND SWAP3 POP DUP1 DUP5 AND DUP4 OR SWAP2 POP POP SWAP3 SWAP2 POP POP JUMP JUMPDEST PUSH1 0x0 PUSH2 0x17C4 DUP3 PUSH2 0xBC6 JUMP JUMPDEST SWAP1 POP SWAP2 SWAP1 POP JUMP JUMPDEST PUSH1 0x0 DUP2 PUSH1 0x0 SHR SWAP1 POP SWAP2 SWAP1 POP JUMP JUMPDEST PUSH1 0x0 PUSH2 0x17E3 DUP3 PUSH2 0x17CB JUMP JUMPDEST SWAP1 POP SWAP2 SWAP1 POP JUMP JUMPDEST PUSH2 0x17F3 DUP3 PUSH2 0x17B9 JUMP JUMPDEST PUSH2 0x1806 PUSH2 0x17FF DUP3 PUSH2 0x17D8 JUMP JUMPDEST DUP4 SLOAD PUSH2 0x1777 JUMP JUMPDEST DUP3 SSTORE POP POP POP JUMP JUMPDEST PUSH2 0x1816 DUP2 PUSH2 0xBDF JUMP JUMPDEST DUP2 EQ PUSH2 0x1821 JUMPI PUSH1 0x0 DUP1 REVERT JUMPDEST POP JUMP JUMPDEST PUSH1 0x0 DUP2 CALLDATALOAD PUSH2 0x1831 DUP2 PUSH2 0x180D JUMP JUMPDEST DUP1 SWAP2 POP POP SWAP2 SWAP1 POP JUMP JUMPDEST PUSH1 0x0 DUP2 PUSH1 0x40 SHL SWAP1 POP SWAP2 SWAP1 POP JUMP JUMPDEST PUSH1 0x0 PUSH16 0xFFFFFFFFFFFFFFFF0000000000000000 PUSH2 0x1863 DUP5 PUSH2 0x183A JUMP JUMPDEST SWAP4 POP DUP1 NOT DUP4 AND SWAP3 POP DUP1 DUP5 AND DUP4 OR SWAP2 POP POP SWAP3 SWAP2 POP POP JUMP JUMPDEST PUSH1 0x0 PUSH2 0x1894 PUSH2 0x188F PUSH2 0x188A DUP5 PUSH2 0xBDF JUMP JUMPDEST PUSH2 0x1708 JUMP JUMPDEST PUSH2 0xBDF JUMP JUMPDEST SWAP1 POP SWAP2 SWAP1 POP JUMP JUMPDEST PUSH1 0x0 DUP2 SWAP1 POP SWAP2 SWAP1 POP JUMP JUMPDEST PUSH2 0x18AE DUP3 PUSH2 0x1879 JUMP JUMPDEST PUSH2 0x18C1 PUSH2 0x18BA DUP3 PUSH2 0x189B JUMP JUMPDEST DUP4 SLOAD PUSH2 0x1847 JUMP JUMPDEST DUP3 SSTORE POP POP POP JUMP JUMPDEST PUSH1 0x0 DUP2 CALLDATALOAD PUSH2 0x18D5 DUP2 PUSH2 0x1451 JUMP JUMPDEST DUP1 SWAP2 POP POP SWAP2 SWAP1 POP JUMP JUMPDEST PUSH1 0x0 DUP2 PUSH1 0x80 SHL SWAP1 POP SWAP2 SWAP1 POP JUMP JUMPDEST PUSH1 0x0 PUSH20 0xFFFFFFFF00000000000000000000000000000000 PUSH2 0x190B DUP5 PUSH2 0x18DE JUMP JUMPDEST SWAP4 POP DUP1 NOT DUP4 AND SWAP3 POP DUP1 DUP5 AND DUP4 OR SWAP2 POP POP SWAP3 SWAP2 POP POP JUMP JUMPDEST PUSH1 0x0 PUSH2 0x193C PUSH2 0x1937 PUSH2 0x1932 DUP5 PUSH2 0xBFB JUMP JUMPDEST PUSH2 0x1708 JUMP JUMPDEST PUSH2 0xBFB JUMP JUMPDEST SWAP1 POP SWAP2 SWAP1 POP JUMP JUMPDEST PUSH1 0x0 DUP2 SWAP1 POP SWAP2 SWAP1 POP JUMP JUMPDEST PUSH2 0x1956 DUP3 PUSH2 0x1921 JUMP JUMPDEST PUSH2 0x1969 PUSH2 0x1962 DUP3 PUSH2 0x1943 JUMP JUMPDEST DUP4 SLOAD PUSH2 0x18EB JUMP JUMPDEST DUP3 SSTORE POP POP POP JUMP JUMPDEST PUSH1 0x0 DUP2 ADD PUSH1 0x0 DUP4 ADD DUP1 PUSH2 0x1982 DUP2 PUSH2 0x16BB JUMP JUMPDEST SWAP1 POP PUSH2 0x198E DUP2 DUP5 PUSH2 0x173E JUMP JUMPDEST POP POP POP PUSH1 0x1 DUP2 ADD PUSH1 0x20 DUP4 ADD DUP1 PUSH2 0x19A3 DUP2 PUSH2 0x1761 JUMP JUMPDEST SWAP1 POP PUSH2 0x19AF DUP2 DUP5 PUSH2 0x17EA JUMP JUMPDEST POP POP POP PUSH1 0x2 DUP2 ADD PUSH1 0x40 DUP4 ADD DUP1 PUSH2 0x19C4 DUP2 PUSH2 0x1761 JUMP JUMPDEST SWAP1 POP PUSH2 0x19D0 DUP2 DUP5 PUSH2 0x17EA JUMP JUMPDEST POP POP POP PUSH1 0x3 DUP2 ADD PUSH1 0x60 DUP4 ADD DUP1 PUSH2 0x19E5 DUP2 PUSH2 0x16BB JUMP JUMPDEST SWAP1 POP PUSH2 0x19F1 DUP2 DUP5 PUSH2 0x173E JUMP JUMPDEST POP POP POP PUSH1 0x3 DUP2 ADD PUSH1 0x80 DUP4 ADD DUP1 PUSH2 0x1A06 DUP2 PUSH2 0x1824 JUMP JUMPDEST SWAP1 POP PUSH2 0x1A12 DUP2 DUP5 PUSH2 0x18A5 JUMP JUMPDEST POP POP POP PUSH1 0x3 DUP2 ADD PUSH1 0xA0 DUP4 ADD DUP1 PUSH2 0x1A27 DUP2 PUSH2 0x18C8 JUMP JUMPDEST SWAP1 POP PUSH2 0x1A33 DUP2 DUP5 PUSH2 0x194D JUMP JUMPDEST POP POP POP POP POP JUMP JUMPDEST PUSH2 0x1A44 DUP3 DUP3 PUSH2 0x1970 JUMP JUMPDEST POP POP JUMP JUMPDEST PUSH1 0x0 PUSH1 0x40 DUP3 ADD SWAP1 POP PUSH2 0x1A5D PUSH1 0x0 DUP4 ADD DUP6 PUSH2 0xBD0 JUMP JUMPDEST PUSH2 0x1A6A PUSH1 0x20 DUP4 ADD DUP5 PUSH2 0xBB7 JUMP JUMPDEST SWAP4 SWAP3 POP POP POP JUMP INVALID LOG2 PUSH5 0x6970667358 0x22 SLT KECCAK256 0xC OR PUSH19 0xDFBFF49357AF6343DB84069519E6109DD6C262 SWAP1 BLOBBASEFEE MSTORE8 GASLIMIT SHL 0xBC 0xCF CHAINID KECCAK256 PUSH0 PUSH5 0x736F6C6343 STOP ADDMOD XOR STOP CALLER "},"methodIdentifiers":{"admin()":"f851a440","currentSlot()":"3359632e","getSolanaBlock(uint64)":"a99eb151","setAdmin(address)":"704b6c02","setVerifier(address)":"5437988d","solanaHeaders(uint64)":"106f74c5","sp1Verifier()":"52a07fa3","updateBatchSolanaBlocks(bytes32,bytes[],bytes[],(uint64,bytes32,bytes32,uint64,int64,uint32)[])":"731b02aa","updateSolanaBlock(bytes32,bytes,bytes,(uint64,bytes32,bytes32,uint64,int64,uint32))":"f7248140","verifyMessage(uint64,bytes32,bytes32[])":"ac6c2774"}}}}}