{
  "_format": "hh-sol-artifact-1",
  "contractName": "MockSP1Verifier",
  "sourceName": "contracts/MockSP1Verifier.sol",
  "abi": [
    {
      "inputs": [
        {
          "internalType": "bool",
          "name": "_strictMode",
          "type": "bool"
        }
      ],
      "stateMutability": "nonpayable",
      "type": "constructor"
    },
    {
      "anonymous": false,
      "inputs": [
        {
          "indexed": true,
          "internalType": "bytes32",
          "name": "programVKey",
          "type": "bytes32"
        },
        {
          "indexed": false,
          "internalType": "bytes",
          "name": "publicValues",
          "type": "bytes"
        },
        {
          "indexed": false,
          "internalType": "uint256",
          "name": "proofLength",
          "type": "uint256"
        }
      ],
      "name": "ProofVerified",
      "type": "event"
    },
    {
      "anonymous": false,
      "inputs": [
        {
          "indexed": true,
          "internalType": "bytes32",
          "name": "programVKey",
          "type": "bytes32"
        },
        {
          "indexed": false,
          "internalType": "string",
          "name": "reason",
          "type": "string"
        }
      ],
      "name": "VerificationFailed",
      "type": "event"
    },
    {
      "inputs": [
        {
          "internalType": "bytes32",
          "name": "programVKey",
          "type": "bytes32"
        }
      ],
      "name": "approveProgram",
      "outputs": [],
      "stateMutability": "nonpayable",
      "type": "function"
    },
    {
      "inputs": [
        {
          "internalType": "bytes32",
          "name": "",
          "type": "bytes32"
        }
      ],
      "name": "approvedPrograms",
      "outputs": [
        {
          "internalType": "bool",
          "name": "",
          "type": "bool"
        }
      ],
      "stateMutability": "view",
      "type": "function"
    },
    {
      "inputs": [],
      "name": "strictMode",
      "outputs": [
        {
          "internalType": "bool",
          "name": "",
          "type": "bool"
        }
      ],
      "stateMutability": "view",
      "type": "function"
    },
    {
      "inputs": [],
      "name": "verificationCount",
      "outputs": [
        {
          "internalType": "uint256",
          "name": "",
          "type": "uint256"
        }
      ],
      "stateMutability": "view",
      "type": "function"
    },
    {
      "inputs": [
        {
          "internalType": "bytes32",
          "name": "programVKey",
          "type": "bytes32"
        },
        {
          "internalType": "bytes",
          "name": "publicValues",
          "type": "bytes"
        },
        {
          "internalType": "bytes",
          "name": "proofBytes",
          "type": "bytes"
        }
      ],
      "name": "verifyProof",
      "outputs": [],
      "stateMutability": "nonpayable",
      "type": "function"
    }
  ],
  "bytecode": "0x608060405234801561001057600080fd5b506040516107b13803806107b18339818101604052810190610032919061008e565b806000806101000a81548160ff021916908315150217905550506100bb565b600080fd5b60008115159050919050565b61006b81610056565b811461007657600080fd5b50565b60008151905061008881610062565b92915050565b6000602082840312156100a4576100a3610051565b5b60006100b284828501610079565b91505092915050565b6106e7806100ca6000396000f3fe608060405234801561001057600080fd5b50600436106100575760003560e01c80630830e22e1461005c5780632549cd6f1461007a57806341493c60146100965780637418fc5c146100b2578063e356fc96146100d0575b600080fd5b610064610100565b60405161007191906102c8565b60405180910390f35b610094600480360381019061008f9190610323565b610106565b005b6100b060048036038101906100ab91906103b5565b610134565b005b6100ba61027e565b6040516100c79190610465565b60405180910390f35b6100ea60048036038101906100e59190610323565b61028f565b6040516100f79190610465565b60405180910390f35b60025481565b600180600083815260200190815260200160002060006101000a81548160ff02191690831515021790555050565b60008054906101000a900460ff1615610238576000801b850361018c576040517f08c379a000000000000000000000000000000000000000000000000000000000815260040161018390610503565b60405180910390fd5b600084849050116101d2576040517f08c379a00000000000000000000000000000000000000000000000000000000081526004016101c990610595565b60405180910390fd5b60008282905011610218576040517f08c379a000000000000000000000000000000000000000000000000000000000815260040161020f90610601565b60405180910390fd5b6001600086815260200190815260200160002060009054906101000a9050505b847f9deb01c8b0283788805d1019916ec2d1139fd639a068d26f03ec947918eaa4a585858585905060405161026f9392919061067f565b60405180910390a25050505050565b60008054906101000a900460ff1681565b60016020528060005260406000206000915054906101000a900460ff1681565b6000819050919050565b6102c2816102af565b82525050565b60006020820190506102dd60008301846102b9565b92915050565b600080fd5b600080fd5b6000819050919050565b610300816102ed565b811461030b57600080fd5b50565b60008135905061031d816102f7565b92915050565b600060208284031215610339576103386102e3565b5b60006103478482850161030e565b91505092915050565b600080fd5b600080fd5b600080fd5b60008083601f84011261037557610374610350565b5b8235905067ffffffffffffffff81111561039257610391610355565b5b6020830191508360018202830111156103ae576103ad61035a565b5b9250929050565b6000806000806000606086880312156103d1576103d06102e3565b5b60006103df8882890161030e565b955050602086013567ffffffffffffffff811115610400576103ff6102e8565b5b61040c8882890161035f565b9450945050604086013567ffffffffffffffff81111561042f5761042e6102e8565b5b61043b8882890161035f565b92509250509295509295909350565b60008115159050919050565b61045f8161044a565b82525050565b600060208201905061047a6000830184610456565b92915050565b600082825260208201905092915050565b7f4d6f636b53503156657269666965723a20496e76616c69642070726f6772616d60008201527f20564b6579000000000000000000000000000000000000000000000000000000602082015250565b60006104ed602583610480565b91506104f882610491565b604082019050919050565b6000602082019050818103600083015261051c816104e0565b9050919050565b7f4d6f636b53503156657269666965723a20456d707479207075626c696320766160008201527f6c75657300000000000000000000000000000000000000000000000000000000602082015250565b600061057f602483610480565b915061058a82610523565b604082019050919050565b600060208201905081810360008301526105ae81610572565b9050919050565b7f4d6f636b53503156657269666965723a20456d7074792070726f6f6600000000600082015250565b60006105eb601c83610480565b91506105f6826105b5565b602082019050919050565b6000602082019050818103600083015261061a816105de565b9050919050565b600082825260208201905092915050565b82818337600083830152505050565b6000601f19601f8301169050919050565b600061065e8385610621565b935061066b838584610632565b61067483610641565b840190509392505050565b6000604082019050818103600083015261069a818587610652565b90506106a960208301846102b9565b94935050505056fea26469706673582212205cf4396c3d6b798a5d26ace95bc9f3ca17eb5a7c8dde89cb56affaf3c3cb82a164736f6c63430008180033",
  "linkReferences": {},
  "deployedLinkReferences": {}
}